{"abi":[{"inputs":[{"internalType":"uint256","name":"initialSupply","type":"uint256"}],"stateMutability":"nonpayable","type":"constructor","name":"constructor"},{"anonymous":false,"inputs":[{"indexed":true,"internalType":"address","name":"owner","type":"address"},{"indexed":true,"internalType":"address","name":"spender","type":"address"},{"indexed":false,"internalType":"uint256","name":"value","type":"uint256"}],"name":"Approval","type":"event"},{"anonymous":false,"inputs":[{"indexed":true,"internalType":"address","name":"from","type":"address"},{"indexed":true,"internalType":"address","name":"to","type":"address"},{"indexed":false,"internalType":"uint256","name":"value","type":"uint256"}],"name":"Transfer","type":"event"},{"inputs":[{"internalType":"address","name":"","type":"address"},{"internalType":"address","name":"","type":"address"}],"name":"allowance","outputs":[{"internalType":"uint256","name":"","type":"uint256"}],"stateMutability":"view","type":"function"},{"inputs":[{"internalType":"address","name":"spender","type":"address"},{"internalType":"uint256","name":"amount","type":"uint256"}],"name":"approve","outputs":[{"internalType":"bool","name":"","type":"bool"}],"stateMutability":"nonpayable","type":"function"},{"inputs":[{"internalType":"address","name":"","type":"address"}],"name":"balanceOf","outputs":[{"internalType":"uint256","name":"","type":"uint256"}],"stateMutability":"view","type":"function"},{"inputs":[{"internalType":"uint256","name":"amount","type":"uint256"}],"name":"burn","outputs":[],"stateMutability":"nonpayable","type":"function"},{"inputs":[],"name":"decimals","outputs":[{"internalType":"uint8","name":"","type":"uint8"}],"stateMutability":"view","type":"function"},{"inputs":[{"internalType":"address","name":"to","type":"address"},{"internalType":"uint256","name":"amount","type":"uint256"}],"name":"mint","outputs":[],"stateMutability":"nonpayable","type":"function"},{"inputs":[],"name":"name","outputs":[{"internalType":"string","name":"","type":"string"}],"stateMutability":"view","type":"function"},{"inputs":[],"name":"symbol","outputs":[{"internalType":"string","name":"","type":"string"}],"stateMutability":"view","type":"function"},{"inputs":[],"name":"totalSupply","outputs":[{"internalType":"uint256","name":"","type":"uint256"}],"stateMutability":"view","type":"function"},{"inputs":[{"internalType":"address","name":"recipient","type":"address"},{"internalType":"uint256","name":"amount","type":"uint256"}],"name":"transfer","outputs":[{"internalType":"bool","name":"","type":"bool"}],"stateMutability":"nonpayable","type":"function"},{"inputs":[{"internalType":"address","name":"sender","type":"address"},{"internalType":"address","name":"recipient","type":"address"},{"internalType":"uint256","name":"amount","type":"uint256"}],"name":"transferFrom","outputs":[{"internalType":"bool","name":"","type":"bool"}],"stateMutability":"nonpayable","type":"function"}],"bytecode":"60c060405260086080908152672237b237a1b7b4b760c11b60a0526000906100279082610196565b50604080518082019091526004815263444f444f60e01b60208201526001906100509082610196565b506002805460ff1916601217905534801561006a57600080fd5b50604051610cb9380380610cb983398101604081905261008991610254565b60025461009a9060ff16600a61036c565b6100a4908261037f565b600381905533600081815260046020908152604080832085905551938452919290917fddf252ad1be2c89b69c2b068fc378daa952ba7f163c4a11628f55a4df523b3ef910160405180910390a350610396565b634e487b7160e01b600052604160045260246000fd5b600181811c9082168061012157607f821691505b60208210810361014157634e487b7160e01b600052602260045260246000fd5b50919050565b601f82111561019157806000526020600020601f840160051c8101602085101561016e5750805b601f840160051c820191505b8181101561018e576000815560010161017a565b50505b505050565b81516001600160401b038111156101af576101af6100f7565b6101c3816101bd845461010d565b84610147565b6020601f8211600181146101f757600083156101df5750848201515b600019600385901b1c1916600184901b17845561018e565b600084815260208120601f198516915b828110156102275787850151825560209485019460019092019101610207565b50848210156102455786840151600019600387901b60f8161c191681555b50505050600190811b01905550565b60006020828403121561026657600080fd5b5051919050565b634e487b7160e01b600052601160045260246000fd5b6001815b60018411156102be578085048111156102a2576102a261026d565b60018416156102b057908102905b60019390931c928002610287565b935093915050565b6000826102d557506001610366565b816102e257506000610366565b81600181146102f857600281146103025761031e565b6001915050610366565b60ff8411156103135761031361026d565b50506001821b610366565b5060208310610133831016604e8410600b8410161715610341575081810a610366565b61034e6000198484610283565b80600019048211156103625761036261026d565b0290505b92915050565b600061037883836102c6565b9392505050565b80820281158282048414176103665761036661026d565b610914806103a56000396000f3fe608060405234801561001057600080fd5b50600436106100a95760003560e01c806340c10f191161007157806340c10f191461013857806342966c681461014d57806370a082311461016057806395d89b4114610180578063a9059cbb14610188578063dd62ed3e1461019b57600080fd5b806306fdde03146100ae578063095ea7b3146100cc57806318160ddd146100ef57806323b872dd14610106578063313ce56714610119575b600080fd5b6100b66101c6565b6040516100c391906105ff565b60405180910390f35b6100df6100da366004610669565b610254565b60405190151581526020016100c3565b6100f860035481565b6040519081526020016100c3565b6100df610114366004610693565b6102c1565b6002546101269060ff1681565b60405160ff90911681526020016100c3565b61014b610146366004610669565b61039c565b005b61014b61015b3660046106d0565b610434565b6100f861016e3660046106e9565b60046020526000908152604090205481565b6100b6610520565b6100df610196366004610669565b61052d565b6100f86101a936600461070b565b600560209081526000928352604080842090915290825290205481565b600080546101d39061073e565b80601f01602080910402602001604051908101604052809291908181526020018280546101ff9061073e565b801561024c5780601f106102215761010080835404028352916020019161024c565b820191906000526020600020905b81548152906001019060200180831161022f57829003601f168201915b505050505081565b3360008181526005602090815260408083206001600160a01b038716808552925280832085905551919290917f8c5be1e5ebec7d5bd14f71427d1e84f3dd0314c0f7b2291e5b200ac8c7c3b925906102af9086815260200190565b60405180910390a35060015b92915050565b6001600160a01b0383166000908152600460205260408120805483919083906102eb90849061078e565b90915550506001600160a01b038316600090815260046020526040812080548492906103189084906107a1565b90915550506001600160a01b03841660009081526005602090815260408083203384529091528120805484929061035090849061078e565b92505081905550826001600160a01b0316846001600160a01b03166000805160206108bf8339815191528460405161038a91815260200190565b60405180910390a35060019392505050565b6002546000906103b09060ff16600a61089b565b6103ba90836108a7565b905080600360008282546103ce91906107a1565b90915550506001600160a01b038316600090815260046020526040812080548392906103fb9084906107a1565b90915550506040518181526001600160a01b038416906000906000805160206108bf8339815191529060200160405180910390a3505050565b6002546000906104489060ff16600a61089b565b61045290836108a7565b336000908152600460205260409020549091508111156104b95760405162461bcd60e51b815260206004820152601c60248201527f496e73756666696369656e742062616c616e636520746f206275726e0000000060448201526064015b60405180910390fd5b33600090815260046020526040812080548392906104d890849061078e565b9250508190555080600360008282546104f1919061078e565b909155505060405181815260009033906000805160206108bf8339815191529060200160405180910390a35050565b600180546101d39061073e565b336000908152600460205260408120548211156105835760405162461bcd60e51b8152602060048201526014602482015273496e73756666696369656e742062616c616e636560601b60448201526064016104b0565b33600090815260046020526040812080548492906105a290849061078e565b90915550506001600160a01b038316600090815260046020526040812080548492906105cf9084906107a1565b90915550506040518281526001600160a01b0384169033906000805160206108bf833981519152906020016102af565b602081526000825180602084015260005b8181101561062d5760208186018101516040868401015201610610565b506000604082850101526040601f19601f83011684010191505092915050565b80356001600160a01b038116811461066457600080fd5b919050565b6000806040838503121561067c57600080fd5b6106858361064d565b946020939093013593505050565b6000806000606084860312156106a857600080fd5b6106b18461064d565b92506106bf6020850161064d565b929592945050506040919091013590565b6000602082840312156106e257600080fd5b5035919050565b6000602082840312156106fb57600080fd5b6107048261064d565b9392505050565b6000806040838503121561071e57600080fd5b6107278361064d565b91506107356020840161064d565b90509250929050565b600181811c9082168061075257607f821691505b60208210810361077257634e487b7160e01b600052602260045260246000fd5b50919050565b634e487b7160e01b600052601160045260246000fd5b818103818111156102bb576102bb610778565b808201808211156102bb576102bb610778565b6001815b60018411156107ef578085048111156107d3576107d3610778565b60018416156107e157908102905b60019390931c9280026107b8565b935093915050565b600082610806575060016102bb565b81610813575060006102bb565b816001811461082957600281146108335761084f565b60019150506102bb565b60ff84111561084457610844610778565b50506001821b6102bb565b5060208310610133831016604e8410600b8410161715610872575081810a6102bb565b61087f60001984846107b4565b806000190482111561089357610893610778565b029392505050565b600061070483836107f7565b80820281158282048414176102bb576102bb61077856feddf252ad1be2c89b69c2b068fc378daa952ba7f163c4a11628f55a4df523b3efa26469706673582212203d805e422d0a423b69947c826da4ab442ddce25c57f3cbf474502a7a91b1aa3f64736f6c634300081c0033","bytecodeSha1":"e7513e5cc784d4f14677c8a7fc0edc9974c77e51","compiler":{"evm_version":"istanbul","optimizer":{"enabled":true,"runs":200},"version":"0.8.28+commit.7893614a"},"contractName":"DodoCoin","language":"Solidity","natspec":{"kind":"dev","methods":{},"version":1},"opcodes":"PUSH1 0x80 PUSH1 0x40 MSTORE CALLVALUE DUP1 ISZERO PUSH2 0x10 JUMPI PUSH1 0x0 DUP1 REVERT JUMPDEST POP PUSH1 0x4 CALLDATASIZE LT PUSH2 0xA9 JUMPI PUSH1 0x0 CALLDATALOAD PUSH1 0xE0 SHR DUP1 PUSH4 0x40C10F19 GT PUSH2 0x71 JUMPI DUP1 PUSH4 0x40C10F19 EQ PUSH2 0x138 JUMPI DUP1 PUSH4 0x42966C68 EQ PUSH2 0x14D JUMPI DUP1 PUSH4 0x70A08231 EQ PUSH2 0x160 JUMPI DUP1 PUSH4 0x95D89B41 EQ PUSH2 0x180 JUMPI DUP1 PUSH4 0xA9059CBB EQ PUSH2 0x188 JUMPI DUP1 PUSH4 0xDD62ED3E EQ PUSH2 0x19B JUMPI PUSH1 0x0 DUP1 REVERT JUMPDEST DUP1 PUSH4 0x6FDDE03 EQ PUSH2 0xAE JUMPI DUP1 PUSH4 0x95EA7B3 EQ PUSH2 0xCC JUMPI DUP1 PUSH4 0x18160DDD EQ PUSH2 0xEF JUMPI DUP1 PUSH4 0x23B872DD EQ PUSH2 0x106 JUMPI DUP1 PUSH4 0x313CE567 EQ PUSH2 0x119 JUMPI JUMPDEST PUSH1 0x0 DUP1 REVERT JUMPDEST PUSH2 0xB6 PUSH2 0x1C6 JUMP JUMPDEST PUSH1 0x40 MLOAD PUSH2 0xC3 SWAP2 SWAP1 PUSH2 0x5FF JUMP JUMPDEST PUSH1 0x40 MLOAD DUP1 SWAP2 SUB SWAP1 RETURN JUMPDEST PUSH2 0xDF PUSH2 0xDA CALLDATASIZE PUSH1 0x4 PUSH2 0x669 JUMP JUMPDEST PUSH2 0x254 JUMP JUMPDEST PUSH1 0x40 MLOAD SWAP1 ISZERO ISZERO DUP2 MSTORE PUSH1 0x20 ADD PUSH2 0xC3 JUMP JUMPDEST PUSH2 0xF8 PUSH1 0x3 SLOAD DUP2 JUMP JUMPDEST PUSH1 0x40 MLOAD SWAP1 DUP2 MSTORE PUSH1 0x20 ADD PUSH2 0xC3 JUMP JUMPDEST PUSH2 0xDF PUSH2 0x114 CALLDATASIZE PUSH1 0x4 PUSH2 0x693 JUMP JUMPDEST PUSH2 0x2C1 JUMP JUMPDEST PUSH1 0x2 SLOAD PUSH2 0x126 SWAP1 PUSH1 0xFF AND DUP2 JUMP JUMPDEST PUSH1 0x40 MLOAD PUSH1 0xFF SWAP1 SWAP2 AND DUP2 MSTORE PUSH1 0x20 ADD PUSH2 0xC3 JUMP JUMPDEST PUSH2 0x14B PUSH2 0x146 CALLDATASIZE PUSH1 0x4 PUSH2 0x669 JUMP JUMPDEST PUSH2 0x39C JUMP JUMPDEST STOP JUMPDEST PUSH2 0x14B PUSH2 0x15B CALLDATASIZE PUSH1 0x4 PUSH2 0x6D0 JUMP JUMPDEST PUSH2 0x434 JUMP JUMPDEST PUSH2 0xF8 PUSH2 0x16E CALLDATASIZE PUSH1 0x4 PUSH2 0x6E9 JUMP JUMPDEST PUSH1 0x4 PUSH1 0x20 MSTORE PUSH1 0x0 SWAP1 DUP2 MSTORE PUSH1 0x40 SWAP1 KECCAK256 SLOAD DUP2 JUMP JUMPDEST PUSH2 0xB6 PUSH2 0x520 JUMP JUMPDEST PUSH2 0xDF PUSH2 0x196 CALLDATASIZE PUSH1 0x4 PUSH2 0x669 JUMP JUMPDEST PUSH2 0x52D JUMP JUMPDEST PUSH2 0xF8 PUSH2 0x1A9 CALLDATASIZE PUSH1 0x4 PUSH2 0x70B JUMP JUMPDEST PUSH1 0x5 PUSH1 0x20 SWAP1 DUP2 MSTORE PUSH1 0x0 SWAP3 DUP4 MSTORE PUSH1 0x40 DUP1 DUP5 KECCAK256 SWAP1 SWAP2 MSTORE SWAP1 DUP3 MSTORE SWAP1 KECCAK256 SLOAD DUP2 JUMP JUMPDEST PUSH1 0x0 DUP1 SLOAD PUSH2 0x1D3 SWAP1 PUSH2 0x73E JUMP JUMPDEST DUP1 PUSH1 0x1F ADD PUSH1 0x20 DUP1 SWAP2 DIV MUL PUSH1 0x20 ADD PUSH1 0x40 MLOAD SWAP1 DUP2 ADD PUSH1 0x40 MSTORE DUP1 SWAP3 SWAP2 SWAP1 DUP2 DUP2 MSTORE PUSH1 0x20 ADD DUP3 DUP1 SLOAD PUSH2 0x1FF SWAP1 PUSH2 0x73E JUMP JUMPDEST DUP1 ISZERO PUSH2 0x24C JUMPI DUP1 PUSH1 0x1F LT PUSH2 0x221 JUMPI PUSH2 0x100 DUP1 DUP4 SLOAD DIV MUL DUP4 MSTORE SWAP2 PUSH1 0x20 ADD SWAP2 PUSH2 0x24C JUMP JUMPDEST DUP3 ADD SWAP2 SWAP1 PUSH1 0x0 MSTORE PUSH1 0x20 PUSH1 0x0 KECCAK256 SWAP1 JUMPDEST DUP2 SLOAD DUP2 MSTORE SWAP1 PUSH1 0x1 ADD SWAP1 PUSH1 0x20 ADD DUP1 DUP4 GT PUSH2 0x22F JUMPI DUP3 SWAP1 SUB PUSH1 0x1F AND DUP3 ADD SWAP2 JUMPDEST POP POP POP POP POP DUP2 JUMP JUMPDEST CALLER PUSH1 0x0 DUP2 DUP2 MSTORE PUSH1 0x5 PUSH1 0x20 SWAP1 DUP2 MSTORE PUSH1 0x40 DUP1 DUP4 KECCAK256 PUSH1 0x1 PUSH1 0x1 PUSH1 0xA0 SHL SUB DUP8 AND DUP1 DUP6 MSTORE SWAP3 MSTORE DUP1 DUP4 KECCAK256 DUP6 SWAP1 SSTORE MLOAD SWAP2 SWAP3 SWAP1 SWAP2 PUSH32 0x8C5BE1E5EBEC7D5BD14F71427D1E84F3DD0314C0F7B2291E5B200AC8C7C3B925 SWAP1 PUSH2 0x2AF SWAP1 DUP7 DUP2 MSTORE PUSH1 0x20 ADD SWAP1 JUMP JUMPDEST PUSH1 0x40 MLOAD DUP1 SWAP2 SUB SWAP1 LOG3 POP PUSH1 0x1 JUMPDEST SWAP3 SWAP2 POP POP JUMP JUMPDEST PUSH1 0x1 PUSH1 0x1 PUSH1 0xA0 SHL SUB DUP4 AND PUSH1 0x0 SWAP1 DUP2 MSTORE PUSH1 0x4 PUSH1 0x20 MSTORE PUSH1 0x40 DUP2 KECCAK256 DUP1 SLOAD DUP4 SWAP2 SWAP1 DUP4 SWAP1 PUSH2 0x2EB SWAP1 DUP5 SWAP1 PUSH2 0x78E JUMP JUMPDEST SWAP1 SWAP2 SSTORE POP POP PUSH1 0x1 PUSH1 0x1 PUSH1 0xA0 SHL SUB DUP4 AND PUSH1 0x0 SWAP1 DUP2 MSTORE PUSH1 0x4 PUSH1 0x20 MSTORE PUSH1 0x40 DUP2 KECCAK256 DUP1 SLOAD DUP5 SWAP3 SWAP1 PUSH2 0x318 SWAP1 DUP5 SWAP1 PUSH2 0x7A1 JUMP JUMPDEST SWAP1 SWAP2 SSTORE POP POP PUSH1 0x1 PUSH1 0x1 PUSH1 0xA0 SHL SUB DUP5 AND PUSH1 0x0 SWAP1 DUP2 MSTORE PUSH1 0x5 PUSH1 0x20 SWAP1 DUP2 MSTORE PUSH1 0x40 DUP1 DUP4 KECCAK256 CALLER DUP5 MSTORE SWAP1 SWAP2 MSTORE DUP2 KECCAK256 DUP1 SLOAD DUP5 SWAP3 SWAP1 PUSH2 0x350 SWAP1 DUP5 SWAP1 PUSH2 0x78E JUMP JUMPDEST SWAP3 POP POP DUP2 SWAP1 SSTORE POP DUP3 PUSH1 0x1 PUSH1 0x1 PUSH1 0xA0 SHL SUB AND DUP5 PUSH1 0x1 PUSH1 0x1 PUSH1 0xA0 SHL SUB AND PUSH1 0x0 DUP1 MLOAD PUSH1 0x20 PUSH2 0x8BF DUP4 CODECOPY DUP2 MLOAD SWAP2 MSTORE DUP5 PUSH1 0x40 MLOAD PUSH2 0x38A SWAP2 DUP2 MSTORE PUSH1 0x20 ADD SWAP1 JUMP JUMPDEST PUSH1 0x40 MLOAD DUP1 SWAP2 SUB SWAP1 LOG3 POP PUSH1 0x1 SWAP4 SWAP3 POP POP POP JUMP JUMPDEST PUSH1 0x2 SLOAD PUSH1 0x0 SWAP1 PUSH2 0x3B0 SWAP1 PUSH1 0xFF AND PUSH1 0xA PUSH2 0x89B JUMP JUMPDEST PUSH2 0x3BA SWAP1 DUP4 PUSH2 0x8A7 JUMP JUMPDEST SWAP1 POP DUP1 PUSH1 0x3 PUSH1 0x0 DUP3 DUP3 SLOAD PUSH2 0x3CE SWAP2 SWAP1 PUSH2 0x7A1 JUMP JUMPDEST SWAP1 SWAP2 SSTORE POP POP PUSH1 0x1 PUSH1 0x1 PUSH1 0xA0 SHL SUB DUP4 AND PUSH1 0x0 SWAP1 DUP2 MSTORE PUSH1 0x4 PUSH1 0x20 MSTORE PUSH1 0x40 DUP2 KECCAK256 DUP1 SLOAD DUP4 SWAP3 SWAP1 PUSH2 0x3FB SWAP1 DUP5 SWAP1 PUSH2 0x7A1 JUMP JUMPDEST SWAP1 SWAP2 SSTORE POP POP PUSH1 0x40 MLOAD DUP2 DUP2 MSTORE PUSH1 0x1 PUSH1 0x1 PUSH1 0xA0 SHL SUB DUP5 AND SWAP1 PUSH1 0x0 SWAP1 PUSH1 0x0 DUP1 MLOAD PUSH1 0x20 PUSH2 0x8BF DUP4 CODECOPY DUP2 MLOAD SWAP2 MSTORE SWAP1 PUSH1 0x20 ADD PUSH1 0x40 MLOAD DUP1 SWAP2 SUB SWAP1 LOG3 POP POP POP JUMP JUMPDEST PUSH1 0x2 SLOAD PUSH1 0x0 SWAP1 PUSH2 0x448 SWAP1 PUSH1 0xFF AND PUSH1 0xA PUSH2 0x89B JUMP JUMPDEST PUSH2 0x452 SWAP1 DUP4 PUSH2 0x8A7 JUMP JUMPDEST CALLER PUSH1 0x0 SWAP1 DUP2 MSTORE PUSH1 0x4 PUSH1 0x20 MSTORE PUSH1 0x40 SWAP1 KECCAK256 SLOAD SWAP1 SWAP2 POP DUP2 GT ISZERO PUSH2 0x4B9 JUMPI PUSH1 0x40 MLOAD PUSH3 0x461BCD PUSH1 0xE5 SHL DUP2 MSTORE PUSH1 0x20 PUSH1 0x4 DUP3 ADD MSTORE PUSH1 0x1C PUSH1 0x24 DUP3 ADD MSTORE PUSH32 0x496E73756666696369656E742062616C616E636520746F206275726E00000000 PUSH1 0x44 DUP3 ADD MSTORE PUSH1 0x64 ADD JUMPDEST PUSH1 0x40 MLOAD DUP1 SWAP2 SUB SWAP1 REVERT JUMPDEST CALLER PUSH1 0x0 SWAP1 DUP2 MSTORE PUSH1 0x4 PUSH1 0x20 MSTORE PUSH1 0x40 DUP2 KECCAK256 DUP1 SLOAD DUP4 SWAP3 SWAP1 PUSH2 0x4D8 SWAP1 DUP5 SWAP1 PUSH2 0x78E JUMP JUMPDEST SWAP3 POP POP DUP2 SWAP1 SSTORE POP DUP1 PUSH1 0x3 PUSH1 0x0 DUP3 DUP3 SLOAD PUSH2 0x4F1 SWAP2 SWAP1 PUSH2 0x78E JUMP JUMPDEST SWAP1 SWAP2 SSTORE POP POP PUSH1 0x40 MLOAD DUP2 DUP2 MSTORE PUSH1 0x0 SWAP1 CALLER SWAP1 PUSH1 0x0 DUP1 MLOAD PUSH1 0x20 PUSH2 0x8BF DUP4 CODECOPY DUP2 MLOAD SWAP2 MSTORE SWAP1 PUSH1 0x20 ADD PUSH1 0x40 MLOAD DUP1 SWAP2 SUB SWAP1 LOG3 POP POP JUMP JUMPDEST PUSH1 0x1 DUP1 SLOAD PUSH2 0x1D3 SWAP1 PUSH2 0x73E JUMP JUMPDEST CALLER PUSH1 0x0 SWAP1 DUP2 MSTORE PUSH1 0x4 PUSH1 0x20 MSTORE PUSH1 0x40 DUP2 KECCAK256 SLOAD DUP3 GT ISZERO PUSH2 0x583 JUMPI PUSH1 0x40 MLOAD PUSH3 0x461BCD PUSH1 0xE5 SHL DUP2 MSTORE PUSH1 0x20 PUSH1 0x4 DUP3 ADD MSTORE PUSH1 0x14 PUSH1 0x24 DUP3 ADD MSTORE PUSH20 0x496E73756666696369656E742062616C616E6365 PUSH1 0x60 SHL PUSH1 0x44 DUP3 ADD MSTORE PUSH1 0x64 ADD PUSH2 0x4B0 JUMP JUMPDEST CALLER PUSH1 0x0 SWAP1 DUP2 MSTORE PUSH1 0x4 PUSH1 0x20 MSTORE PUSH1 0x40 DUP2 KECCAK256 DUP1 SLOAD DUP5 SWAP3 SWAP1 PUSH2 0x5A2 SWAP1 DUP5 SWAP1 PUSH2 0x78E JUMP JUMPDEST SWAP1 SWAP2 SSTORE POP POP PUSH1 0x1 PUSH1 0x1 PUSH1 0xA0 SHL SUB DUP4 AND PUSH1 0x0 SWAP1 DUP2 MSTORE PUSH1 0x4 PUSH1 0x20 MSTORE PUSH1 0x40 DUP2 KECCAK256 DUP1 SLOAD DUP5 SWAP3 SWAP1 PUSH2 0x5CF SWAP1 DUP5 SWAP1 PUSH2 0x7A1 JUMP JUMPDEST SWAP1 SWAP2 SSTORE POP POP PUSH1 0x40 MLOAD DUP3 DUP2 MSTORE PUSH1 0x1 PUSH1 0x1 PUSH1 0xA0 SHL SUB DUP5 AND SWAP1 CALLER SWAP1 PUSH1 0x0 DUP1 MLOAD PUSH1 0x20 PUSH2 0x8BF DUP4 CODECOPY DUP2 MLOAD SWAP2 MSTORE SWAP1 PUSH1 0x20 ADD PUSH2 0x2AF JUMP JUMPDEST PUSH1 0x20 DUP2 MSTORE PUSH1 0x0 DUP3 MLOAD DUP1 PUSH1 0x20 DUP5 ADD MSTORE PUSH1 0x0 JUMPDEST DUP2 DUP2 LT ISZERO PUSH2 0x62D JUMPI PUSH1 0x20 DUP2 DUP7 ADD DUP2 ADD MLOAD PUSH1 0x40 DUP7 DUP5 ADD ADD MSTORE ADD PUSH2 0x610 JUMP JUMPDEST POP PUSH1 0x0 PUSH1 0x40 DUP3 DUP6 ADD ADD MSTORE PUSH1 0x40 PUSH1 0x1F NOT PUSH1 0x1F DUP4 ADD AND DUP5 ADD ADD SWAP2 POP POP SWAP3 SWAP2 POP POP JUMP JUMPDEST DUP1 CALLDATALOAD PUSH1 0x1 PUSH1 0x1 PUSH1 0xA0 SHL SUB DUP2 AND DUP2 EQ PUSH2 0x664 JUMPI PUSH1 0x0 DUP1 REVERT JUMPDEST SWAP2 SWAP1 POP JUMP JUMPDEST PUSH1 0x0 DUP1 PUSH1 0x40 DUP4 DUP6 SUB SLT ISZERO PUSH2 0x67C JUMPI PUSH1 0x0 DUP1 REVERT JUMPDEST PUSH2 0x685 DUP4 PUSH2 0x64D JUMP JUMPDEST SWAP5 PUSH1 0x20 SWAP4 SWAP1 SWAP4 ADD CALLDATALOAD SWAP4 POP POP POP JUMP JUMPDEST PUSH1 0x0 DUP1 PUSH1 0x0 PUSH1 0x60 DUP5 DUP7 SUB SLT ISZERO PUSH2 0x6A8 JUMPI PUSH1 0x0 DUP1 REVERT JUMPDEST PUSH2 0x6B1 DUP5 PUSH2 0x64D JUMP JUMPDEST SWAP3 POP PUSH2 0x6BF PUSH1 0x20 DUP6 ADD PUSH2 0x64D JUMP JUMPDEST SWAP3 SWAP6 SWAP3 SWAP5 POP POP POP PUSH1 0x40 SWAP2 SWAP1 SWAP2 ADD CALLDATALOAD SWAP1 JUMP JUMPDEST PUSH1 0x0 PUSH1 0x20 DUP3 DUP5 SUB SLT ISZERO PUSH2 0x6E2 JUMPI PUSH1 0x0 DUP1 REVERT JUMPDEST POP CALLDATALOAD SWAP2 SWAP1 POP JUMP JUMPDEST PUSH1 0x0 PUSH1 0x20 DUP3 DUP5 SUB SLT ISZERO PUSH2 0x6FB JUMPI PUSH1 0x0 DUP1 REVERT JUMPDEST PUSH2 0x704 DUP3 PUSH2 0x64D JUMP JUMPDEST SWAP4 SWAP3 POP POP POP JUMP JUMPDEST PUSH1 0x0 DUP1 PUSH1 0x40 DUP4 DUP6 SUB SLT ISZERO PUSH2 0x71E JUMPI PUSH1 0x0 DUP1 REVERT JUMPDEST PUSH2 0x727 DUP4 PUSH2 0x64D JUMP JUMPDEST SWAP2 POP PUSH2 0x735 PUSH1 0x20 DUP5 ADD PUSH2 0x64D JUMP JUMPDEST SWAP1 POP SWAP3 POP SWAP3 SWAP1 POP JUMP JUMPDEST PUSH1 0x1 DUP2 DUP2 SHR SWAP1 DUP3 AND DUP1 PUSH2 0x752 JUMPI PUSH1 0x7F DUP3 AND SWAP2 POP JUMPDEST PUSH1 0x20 DUP3 LT DUP2 SUB PUSH2 0x772 JUMPI PUSH4 0x4E487B71 PUSH1 0xE0 SHL PUSH1 0x0 MSTORE PUSH1 0x22 PUSH1 0x4 MSTORE PUSH1 0x24 PUSH1 0x0 REVERT JUMPDEST POP SWAP2 SWAP1 POP JUMP JUMPDEST PUSH4 0x4E487B71 PUSH1 0xE0 SHL PUSH1 0x0 MSTORE PUSH1 0x11 PUSH1 0x4 MSTORE PUSH1 0x24 PUSH1 0x0 REVERT JUMPDEST DUP2 DUP2 SUB DUP2 DUP2 GT ISZERO PUSH2 0x2BB JUMPI PUSH2 0x2BB PUSH2 0x778 JUMP JUMPDEST DUP1 DUP3 ADD DUP1 DUP3 GT ISZERO PUSH2 0x2BB JUMPI PUSH2 0x2BB PUSH2 0x778 JUMP JUMPDEST PUSH1 0x1 DUP2 JUMPDEST PUSH1 0x1 DUP5 GT ISZERO PUSH2 0x7EF JUMPI DUP1 DUP6 DIV DUP2 GT ISZERO PUSH2 0x7D3 JUMPI PUSH2 0x7D3 PUSH2 0x778 JUMP JUMPDEST PUSH1 0x1 DUP5 AND ISZERO PUSH2 0x7E1 JUMPI SWAP1 DUP2 MUL SWAP1 JUMPDEST PUSH1 0x1 SWAP4 SWAP1 SWAP4 SHR SWAP3 DUP1 MUL PUSH2 0x7B8 JUMP JUMPDEST SWAP4 POP SWAP4 SWAP2 POP POP JUMP JUMPDEST PUSH1 0x0 DUP3 PUSH2 0x806 JUMPI POP PUSH1 0x1 PUSH2 0x2BB JUMP JUMPDEST DUP2 PUSH2 0x813 JUMPI POP PUSH1 0x0 PUSH2 0x2BB JUMP JUMPDEST DUP2 PUSH1 0x1 DUP2 EQ PUSH2 0x829 JUMPI PUSH1 0x2 DUP2 EQ PUSH2 0x833 JUMPI PUSH2 0x84F JUMP JUMPDEST PUSH1 0x1 SWAP2 POP POP PUSH2 0x2BB JUMP JUMPDEST PUSH1 0xFF DUP5 GT ISZERO PUSH2 0x844 JUMPI PUSH2 0x844 PUSH2 0x778 JUMP JUMPDEST POP POP PUSH1 0x1 DUP3 SHL PUSH2 0x2BB JUMP JUMPDEST POP PUSH1 0x20 DUP4 LT PUSH2 0x133 DUP4 LT AND PUSH1 0x4E DUP5 LT PUSH1 0xB DUP5 LT AND OR ISZERO PUSH2 0x872 JUMPI POP DUP2 DUP2 EXP PUSH2 0x2BB JUMP JUMPDEST PUSH2 0x87F PUSH1 0x0 NOT DUP5 DUP5 PUSH2 0x7B4 JUMP JUMPDEST DUP1 PUSH1 0x0 NOT DIV DUP3 GT ISZERO PUSH2 0x893 JUMPI PUSH2 0x893 PUSH2 0x778 JUMP JUMPDEST MUL SWAP4 SWAP3 POP POP POP JUMP JUMPDEST PUSH1 0x0 PUSH2 0x704 DUP4 DUP4 PUSH2 0x7F7 JUMP JUMPDEST DUP1 DUP3 MUL DUP2 ISZERO DUP3 DUP3 DIV DUP5 EQ OR PUSH2 0x2BB JUMPI PUSH2 0x2BB PUSH2 0x778 JUMP INVALID 0xDD CALLCODE MSTORE 0xAD SHL 0xE2 0xC8 SWAP12 PUSH10 0xC2B068FC378DAA952BA7 CALL PUSH4 0xC4A11628 CREATE2 GAS 0x4D CREATE2 0x23 0xB3 0xEF LOG2 PUSH5 0x6970667358 0x22 SLT KECCAK256 RETURNDATASIZE DUP1 MCOPY TIMESTAMP 0x2D EXP TIMESTAMP EXTCODESIZE PUSH10 0x947C826DA4AB442DDCE2 TLOAD JUMPI RETURN 0xCB DELEGATECALL PUSH21 0x502A7A91B1AA3F64736F6C634300081C0033000000 ","sha1":"cf922dbc676341f7a2167b5244b5a4c5d70216b9","source":"// SPDX-License-Identifier: MIT\npragma solidity ^0.8.28;\n\ncontract DodoCoin {\n    // State variables\n    string public name = \"DodoCoin\";\n    string public symbol = \"DODO\";\n    uint8 public decimals = 18;\n    uint256 public totalSupply;\n    mapping(address => uint256) public balanceOf;\n    mapping(address => mapping(address => uint256)) public allowance;\n\n    // Events\n    event Transfer(address indexed from, address indexed to, uint256 value);\n    event Approval(address indexed owner, address indexed spender, uint256 value);\n\n    // Constructor\n    constructor(uint256 initialSupply) {\n        totalSupply = initialSupply * (10 ** uint256(decimals));\n        balanceOf[msg.sender] = totalSupply;\n        emit Transfer(address(0), msg.sender, totalSupply);\n    }\n\n    // Transfer function\n    function transfer(address recipient, uint256 amount) external returns (bool) {\n        require(balanceOf[msg.sender] >= amount, \"Insufficient balance\");\n        balanceOf[msg.sender] -= amount;\n        balanceOf[recipient] += amount;\n        emit Transfer(msg.sender, recipient, amount);\n        return true;\n    }\n\n    // Approve function\n    function approve(address spender, uint256 amount) external returns (bool) {\n        allowance[msg.sender][spender] = amount;\n        emit Approval(msg.sender, spender, amount);\n        return true;\n    }\n\n    // TransferFrom function\n    function transferFrom(address sender, address recipient, uint256 amount) external returns (bool) {\n\n        balanceOf[sender] -= amount;\n        balanceOf[recipient] += amount;\n        allowance[sender][msg.sender] -= amount;\n        emit Transfer(sender, recipient, amount);\n        return true;\n    }\n\n    // Mint function\n    function mint(address to, uint256 amount) external {\n        uint256 amountWithDecimals = amount * (10 ** uint256(decimals));\n        totalSupply += amountWithDecimals;\n        balanceOf[to] += amountWithDecimals;\n        emit Transfer(address(0), to, amountWithDecimals);\n    }\n\n    // Burn function\n    function burn(uint256 amount) external {\n        uint256 amountWithDecimals = amount * (10 ** uint256(decimals));\n        require(balanceOf[msg.sender] >= amountWithDecimals, \"Insufficient balance to burn\");\n        balanceOf[msg.sender] -= amountWithDecimals;\n        totalSupply -= amountWithDecimals;\n        emit Transfer(msg.sender, address(0), amountWithDecimals);\n    }\n}\n","sourcePath":"contracts/DodoCoin.sol","type":"contract","deployment":{"address":"0x5EE5E64Ca4522fb2e5a3ac0D1a366470667434C4","chainid":"1337","blockHeight":719}}