{"abi":[{"inputs":[],"stateMutability":"nonpayable","type":"constructor","name":"constructor"},{"inputs":[],"name":"CheckpointUnorderedInsertion","type":"error"},{"inputs":[],"name":"ECDSAInvalidSignature","type":"error"},{"inputs":[{"internalType":"uint256","name":"length","type":"uint256"}],"name":"ECDSAInvalidSignatureLength","type":"error"},{"inputs":[{"internalType":"bytes32","name":"s","type":"bytes32"}],"name":"ECDSAInvalidSignatureS","type":"error"},{"inputs":[{"internalType":"uint256","name":"increasedSupply","type":"uint256"},{"internalType":"uint256","name":"cap","type":"uint256"}],"name":"ERC20ExceededSafeSupply","type":"error"},{"inputs":[{"internalType":"address","name":"spender","type":"address"},{"internalType":"uint256","name":"allowance","type":"uint256"},{"internalType":"uint256","name":"needed","type":"uint256"}],"name":"ERC20InsufficientAllowance","type":"error"},{"inputs":[{"internalType":"address","name":"sender","type":"address"},{"internalType":"uint256","name":"balance","type":"uint256"},{"internalType":"uint256","name":"needed","type":"uint256"}],"name":"ERC20InsufficientBalance","type":"error"},{"inputs":[{"internalType":"address","name":"approver","type":"address"}],"name":"ERC20InvalidApprover","type":"error"},{"inputs":[{"internalType":"address","name":"receiver","type":"address"}],"name":"ERC20InvalidReceiver","type":"error"},{"inputs":[{"internalType":"address","name":"sender","type":"address"}],"name":"ERC20InvalidSender","type":"error"},{"inputs":[{"internalType":"address","name":"spender","type":"address"}],"name":"ERC20InvalidSpender","type":"error"},{"inputs":[{"internalType":"uint256","name":"deadline","type":"uint256"}],"name":"ERC2612ExpiredSignature","type":"error"},{"inputs":[{"internalType":"address","name":"signer","type":"address"},{"internalType":"address","name":"owner","type":"address"}],"name":"ERC2612InvalidSigner","type":"error"},{"inputs":[{"internalType":"uint256","name":"timepoint","type":"uint256"},{"internalType":"uint48","name":"clock","type":"uint48"}],"name":"ERC5805FutureLookup","type":"error"},{"inputs":[],"name":"ERC6372InconsistentClock","type":"error"},{"inputs":[],"name":"EnforcedPause","type":"error"},{"inputs":[],"name":"ExpectedPause","type":"error"},{"inputs":[{"internalType":"address","name":"account","type":"address"},{"internalType":"uint256","name":"currentNonce","type":"uint256"}],"name":"InvalidAccountNonce","type":"error"},{"inputs":[],"name":"InvalidShortString","type":"error"},{"inputs":[{"internalType":"address","name":"owner","type":"address"}],"name":"OwnableInvalidOwner","type":"error"},{"inputs":[{"internalType":"address","name":"account","type":"address"}],"name":"OwnableUnauthorizedAccount","type":"error"},{"inputs":[],"name":"ReentrancyGuardReentrantCall","type":"error"},{"inputs":[{"internalType":"uint8","name":"bits","type":"uint8"},{"internalType":"uint256","name":"value","type":"uint256"}],"name":"SafeCastOverflowedUintDowncast","type":"error"},{"inputs":[{"internalType":"string","name":"str","type":"string"}],"name":"StringTooLong","type":"error"},{"inputs":[{"internalType":"uint256","name":"expiry","type":"uint256"}],"name":"VotesExpiredSignature","type":"error"},{"anonymous":false,"inputs":[{"indexed":true,"internalType":"address","name":"owner","type":"address"},{"indexed":true,"internalType":"address","name":"spender","type":"address"},{"indexed":false,"internalType":"uint256","name":"value","type":"uint256"}],"name":"Approval","type":"event"},{"anonymous":false,"inputs":[{"indexed":true,"internalType":"address","name":"delegator","type":"address"},{"indexed":true,"internalType":"address","name":"fromDelegate","type":"address"},{"indexed":true,"internalType":"address","name":"toDelegate","type":"address"}],"name":"DelegateChanged","type":"event"},{"anonymous":false,"inputs":[{"indexed":true,"internalType":"address","name":"delegate","type":"address"},{"indexed":false,"internalType":"uint256","name":"previousVotes","type":"uint256"},{"indexed":false,"internalType":"uint256","name":"newVotes","type":"uint256"}],"name":"DelegateVotesChanged","type":"event"},{"anonymous":false,"inputs":[],"name":"EIP712DomainChanged","type":"event"},{"anonymous":false,"inputs":[{"indexed":true,"internalType":"address","name":"previousOwner","type":"address"},{"indexed":true,"internalType":"address","name":"newOwner","type":"address"}],"name":"OwnershipTransferred","type":"event"},{"anonymous":false,"inputs":[{"indexed":false,"internalType":"address","name":"account","type":"address"}],"name":"Paused","type":"event"},{"anonymous":false,"inputs":[{"indexed":true,"internalType":"address","name":"from","type":"address"},{"indexed":true,"internalType":"address","name":"to","type":"address"},{"indexed":false,"internalType":"uint256","name":"value","type":"uint256"}],"name":"Transfer","type":"event"},{"anonymous":false,"inputs":[{"indexed":false,"internalType":"address","name":"account","type":"address"}],"name":"Unpaused","type":"event"},{"inputs":[],"name":"CLOCK_MODE","outputs":[{"internalType":"string","name":"","type":"string"}],"stateMutability":"view","type":"function"},{"inputs":[],"name":"DOMAIN_SEPARATOR","outputs":[{"internalType":"bytes32","name":"","type":"bytes32"}],"stateMutability":"view","type":"function"},{"inputs":[],"name":"MAX_SUPPLY","outputs":[{"internalType":"uint256","name":"","type":"uint256"}],"stateMutability":"view","type":"function"},{"inputs":[{"internalType":"address","name":"owner","type":"address"},{"internalType":"address","name":"spender","type":"address"}],"name":"allowance","outputs":[{"internalType":"uint256","name":"","type":"uint256"}],"stateMutability":"view","type":"function"},{"inputs":[{"internalType":"address","name":"spender","type":"address"},{"internalType":"uint256","name":"value","type":"uint256"}],"name":"approve","outputs":[{"internalType":"bool","name":"","type":"bool"}],"stateMutability":"nonpayable","type":"function"},{"inputs":[{"internalType":"address","name":"account","type":"address"}],"name":"balanceOf","outputs":[{"internalType":"uint256","name":"","type":"uint256"}],"stateMutability":"view","type":"function"},{"inputs":[{"internalType":"uint256","name":"amount","type":"uint256"}],"name":"burn","outputs":[],"stateMutability":"nonpayable","type":"function"},{"inputs":[{"internalType":"address","name":"account","type":"address"},{"internalType":"uint256","name":"value","type":"uint256"}],"name":"burnFrom","outputs":[],"stateMutability":"nonpayable","type":"function"},{"inputs":[{"internalType":"address","name":"account","type":"address"},{"internalType":"uint32","name":"pos","type":"uint32"}],"name":"checkpoints","outputs":[{"components":[{"internalType":"uint48","name":"_key","type":"uint48"},{"internalType":"uint208","name":"_value","type":"uint208"}],"internalType":"struct Checkpoints.Checkpoint208","name":"","type":"tuple"}],"stateMutability":"view","type":"function"},{"inputs":[],"name":"clock","outputs":[{"internalType":"uint48","name":"","type":"uint48"}],"stateMutability":"view","type":"function"},{"inputs":[],"name":"decimals","outputs":[{"internalType":"uint8","name":"","type":"uint8"}],"stateMutability":"view","type":"function"},{"inputs":[{"internalType":"address","name":"delegatee","type":"address"}],"name":"delegate","outputs":[],"stateMutability":"nonpayable","type":"function"},{"inputs":[{"internalType":"address","name":"delegatee","type":"address"},{"internalType":"uint256","name":"nonce","type":"uint256"},{"internalType":"uint256","name":"expiry","type":"uint256"},{"internalType":"uint8","name":"v","type":"uint8"},{"internalType":"bytes32","name":"r","type":"bytes32"},{"internalType":"bytes32","name":"s","type":"bytes32"}],"name":"delegateBySig","outputs":[],"stateMutability":"nonpayable","type":"function"},{"inputs":[{"internalType":"address","name":"account","type":"address"}],"name":"delegates","outputs":[{"internalType":"address","name":"","type":"address"}],"stateMutability":"view","type":"function"},{"inputs":[],"name":"eip712Domain","outputs":[{"internalType":"bytes1","name":"fields","type":"bytes1"},{"internalType":"string","name":"name","type":"string"},{"internalType":"string","name":"version","type":"string"},{"internalType":"uint256","name":"chainId","type":"uint256"},{"internalType":"address","name":"verifyingContract","type":"address"},{"internalType":"bytes32","name":"salt","type":"bytes32"},{"internalType":"uint256[]","name":"extensions","type":"uint256[]"}],"stateMutability":"view","type":"function"},{"inputs":[{"internalType":"uint256","name":"timepoint","type":"uint256"}],"name":"getPastTotalSupply","outputs":[{"internalType":"uint256","name":"","type":"uint256"}],"stateMutability":"view","type":"function"},{"inputs":[{"internalType":"address","name":"account","type":"address"},{"internalType":"uint256","name":"timepoint","type":"uint256"}],"name":"getPastVotes","outputs":[{"internalType":"uint256","name":"","type":"uint256"}],"stateMutability":"view","type":"function"},{"inputs":[{"internalType":"address","name":"account","type":"address"}],"name":"getVotes","outputs":[{"internalType":"uint256","name":"","type":"uint256"}],"stateMutability":"view","type":"function"},{"inputs":[{"internalType":"address","name":"to","type":"address"},{"internalType":"uint256","name":"amount","type":"uint256"}],"name":"mint","outputs":[],"stateMutability":"nonpayable","type":"function"},{"inputs":[],"name":"name","outputs":[{"internalType":"string","name":"","type":"string"}],"stateMutability":"view","type":"function"},{"inputs":[{"internalType":"address","name":"owner","type":"address"}],"name":"nonces","outputs":[{"internalType":"uint256","name":"","type":"uint256"}],"stateMutability":"view","type":"function"},{"inputs":[{"internalType":"address","name":"account","type":"address"}],"name":"numCheckpoints","outputs":[{"internalType":"uint32","name":"","type":"uint32"}],"stateMutability":"view","type":"function"},{"inputs":[],"name":"owner","outputs":[{"internalType":"address","name":"","type":"address"}],"stateMutability":"view","type":"function"},{"inputs":[],"name":"pause","outputs":[],"stateMutability":"nonpayable","type":"function"},{"inputs":[],"name":"paused","outputs":[{"internalType":"bool","name":"","type":"bool"}],"stateMutability":"view","type":"function"},{"inputs":[{"internalType":"address","name":"owner","type":"address"},{"internalType":"address","name":"spender","type":"address"},{"internalType":"uint256","name":"value","type":"uint256"},{"internalType":"uint256","name":"deadline","type":"uint256"},{"internalType":"uint8","name":"v","type":"uint8"},{"internalType":"bytes32","name":"r","type":"bytes32"},{"internalType":"bytes32","name":"s","type":"bytes32"}],"name":"permit","outputs":[],"stateMutability":"nonpayable","type":"function"},{"inputs":[],"name":"renounceOwnership","outputs":[],"stateMutability":"nonpayable","type":"function"},{"inputs":[{"internalType":"uint256","name":"fee","type":"uint256"}],"name":"setTransferFee","outputs":[],"stateMutability":"nonpayable","type":"function"},{"inputs":[],"name":"symbol","outputs":[{"internalType":"string","name":"","type":"string"}],"stateMutability":"view","type":"function"},{"inputs":[],"name":"totalSupply","outputs":[{"internalType":"uint256","name":"","type":"uint256"}],"stateMutability":"view","type":"function"},{"inputs":[{"internalType":"address","name":"to","type":"address"},{"internalType":"uint256","name":"value","type":"uint256"}],"name":"transfer","outputs":[{"internalType":"bool","name":"","type":"bool"}],"stateMutability":"nonpayable","type":"function"},{"inputs":[],"name":"transferFee","outputs":[{"internalType":"uint256","name":"","type":"uint256"}],"stateMutability":"view","type":"function"},{"inputs":[{"internalType":"address","name":"from","type":"address"},{"internalType":"address","name":"to","type":"address"},{"internalType":"uint256","name":"value","type":"uint256"}],"name":"transferFrom","outputs":[{"internalType":"bool","name":"","type":"bool"}],"stateMutability":"nonpayable","type":"function"},{"inputs":[{"internalType":"address","name":"newOwner","type":"address"}],"name":"transferOwnership","outputs":[],"stateMutability":"nonpayable","type":"function"},{"inputs":[],"name":"unpause","outputs":[],"stateMutability":"nonpayable","type":"function"}],"bytecode":"6101806040526100116012600a610b34565b61001e90620f4240610b43565b610160526005600d5534801561003357600080fd5b5060405180604001604052806009815260200168446f646f436f696e3360b81b81525080604051806040016040528060018152602001603160f81b8152503360405180604001604052806009815260200168446f646f436f696e3360b81b81525060405180604001604052806005815260200164446f446f3360d81b81525081600390816100c19190610bf1565b5060046100ce8282610bf1565b5050506001600160a01b03811661010057604051631e4fbdf760e01b8152600060048201526024015b60405180910390fd5b6101098161025b565b506005805460ff60a01b191690556101228260066102ad565b610120526101318160076102ad565b61014052815160208084019190912060e052815190820120610100524660a0526101be60e05161010051604080517f8b73c3c69bb8fe3d512ecc4cf759cc79239f7b179b0ffacaa9a75d522b39400f60208201529081019290925260608201524660808201523060a082015260009060c00160405160208183030381529060405280519060200120905090565b60805250503060c052506001600c55600e5460ff16156102205760405162461bcd60e51b815260206004820152601f60248201527f436f6e747261637420697320616c726561647920696e697469616c697a65640060448201526064016100f7565b600e805460ff1916600117905561025633610239601290565b61024490600a610b34565b61025190620186a0610b43565b6102e0565b610da7565b600580546001600160a01b038381166001600160a01b0319831681179093556040519116919082907f8be0079c531659141344cd1fd0a4f28419497f9722a3daafe3b4186f6b6457e090600090a35050565b60006020835110156102c9576102c28361031a565b90506102da565b816102d48482610bf1565b5060ff90505b92915050565b6001600160a01b03821661030a5760405163ec442f0560e01b8152600060048201526024016100f7565b61031660008383610358565b5050565b600080829050601f81511115610345578260405163305a27a960e01b81526004016100f79190610caf565b805161035082610cfd565b179392505050565b60006064600d548361036a9190610b43565b6103749190610d21565b905060006103828284610d43565b90506001600160a01b038516158015906103a457506001600160a01b03841615155b80156103b05750600082115b156103e1576103d1856103cb6005546001600160a01b031690565b846103f3565b6103dc8585836103f3565b6103ec565b6103ec8585856103f3565b5050505050565b6103fe83838361045f565b6001600160a01b03831661044f57600061041760025490565b90506001600160d01b038082111561044c57604051630e58ae9360e11b815260048101839052602481018290526044016100f7565b50505b61045a838383610472565b505050565b6104676104fb565b61045a83838361052e565b6001600160a01b0383166104a05761049d600b610c4961065860201b176104988461066b565b6106a3565b50505b6001600160a01b0382166104c9576104c6600b610c556106d960201b176104988461066b565b50505b6001600160a01b0383811660009081526009602052604080822054858416835291205461045a929182169116836106e5565b61050e600554600160a01b900460ff1690565b1561052c5760405163d93c066560e01b815260040160405180910390fd5b565b6001600160a01b03831661055957806002600082825461054e9190610d56565b909155506105cb9050565b6001600160a01b038316600090815260208190526040902054818110156105ac5760405163391434e360e21b81526001600160a01b038516600482015260248101829052604481018390526064016100f7565b6001600160a01b03841660009081526020819052604090209082900390555b6001600160a01b0382166105e757600280548290039055610606565b6001600160a01b03821660009081526020819052604090208054820190555b816001600160a01b0316836001600160a01b03167fddf252ad1be2c89b69c2b068fc378daa952ba7f163c4a11628f55a4df523b3ef8360405161064b91815260200190565b60405180910390a3505050565b60006106648284610d69565b9392505050565b60006001600160d01b0382111561069f576040516306dfcc6560e41b815260d06004820152602481018390526044016100f7565b5090565b6000806106cc6106b161083a565b6106c46106bd88610849565b868860201c565b879190610893565b915091505b935093915050565b60006106648284610d88565b816001600160a01b0316836001600160a01b0316141580156107075750600081115b1561045a576001600160a01b038316156107a1576001600160a01b0383166000908152600a602090815260408220829161074e91906106d9901b610c55176104988661066b565b6001600160d01b031691506001600160d01b03169150846001600160a01b03166000805160206131f98339815191528383604051610796929190918252602082015260400190565b60405180910390a250505b6001600160a01b0382161561045a576001600160a01b0382166000908152600a60209081526040822082916107e39190610658901b610c49176104988661066b565b6001600160d01b031691506001600160d01b03169150836001600160a01b03166000805160206131f9833981519152838360405161082b929190918252602082015260400190565b60405180910390a25050505050565b60006108446108a1565b905090565b8054600090801561088a5761087183610863600184610d43565b600091825260209091200190565b54660100000000000090046001600160d01b0316610664565b60009392505050565b6000806106cc8585856108ac565b600061084443610a0c565b8254600090819080156109ae5760006108ca87610863600185610d43565b805490915065ffffffffffff80821691660100000000000090046001600160d01b031690881682111561091057604051632520601d60e01b815260040160405180910390fd5b8765ffffffffffff168265ffffffffffff160361094c57825465ffffffffffff1666010000000000006001600160d01b038916021783556109a0565b6040805180820190915265ffffffffffff808a1682526001600160d01b03808a1660208085019182528d54600181018f5560008f815291909120945191519092166601000000000000029216919091179101555b94508593506106d192505050565b50506040805180820190915265ffffffffffff80851682526001600160d01b0380851660208085019182528854600181018a5560008a81529182209551925190931666010000000000000291909316179201919091559050816106d1565b600065ffffffffffff82111561069f576040516306dfcc6560e41b815260306004820152602481018390526044016100f7565b634e487b7160e01b600052601160045260246000fd5b6001815b60018411156106d157808504811115610a7457610a74610a3f565b6001841615610a8257908102905b60019390931c928002610a59565b600082610a9f575060016102da565b81610aac575060006102da565b8160018114610ac25760028114610acc57610ae8565b60019150506102da565b60ff841115610add57610add610a3f565b50506001821b6102da565b5060208310610133831016604e8410600b8410161715610b0b575081810a6102da565b610b186000198484610a55565b8060001904821115610b2c57610b2c610a3f565b029392505050565b600061066460ff841683610a90565b80820281158282048414176102da576102da610a3f565b634e487b7160e01b600052604160045260246000fd5b600181811c90821680610b8457607f821691505b602082108103610ba457634e487b7160e01b600052602260045260246000fd5b50919050565b601f82111561045a57806000526020600020601f840160051c81016020851015610bd15750805b601f840160051c820191505b818110156103ec5760008155600101610bdd565b81516001600160401b03811115610c0a57610c0a610b5a565b610c1e81610c188454610b70565b84610baa565b6020601f821160018114610c525760008315610c3a5750848201515b600019600385901b1c1916600184901b1784556103ec565b600084815260208120601f198516915b82811015610c825787850151825560209485019460019092019101610c62565b5084821015610ca05786840151600019600387901b60f8161c191681555b50505050600190811b01905550565b602081526000825180602084015260005b81811015610cdd5760208186018101516040868401015201610cc0565b506000604082850101526040601f19601f83011684010191505092915050565b80516020808301519190811015610ba45760001960209190910360031b1b16919050565b600082610d3e57634e487b7160e01b600052601260045260246000fd5b500490565b818103818111156102da576102da610a3f565b808201808211156102da576102da610a3f565b6001600160d01b0381811683821601908111156102da576102da610a3f565b6001600160d01b0382811682821603908111156102da576102da610a3f565b60805160a05160c05160e051610100516101205161014051610160516123e6610e136000396000818161029001526106e901526000611206015260006111d901526000610e2a01526000610e0201526000610d5d01526000610d8701526000610db101526123e66000f3fe608060405234801561001057600080fd5b50600436106102115760003560e01c8063715018a61161012557806395d89b41116100ad578063c3cda5201161007c578063c3cda5201461049d578063d505accf146104b0578063dd62ed3e146104c3578063f1127ed8146104fc578063f2fde38b1461053b57600080fd5b806395d89b41146104665780639ab24eb01461046e578063a9059cbb14610481578063acb2ad6f1461049457600080fd5b806384b0196e116100f457806384b0196e146103f55780638da5cb5b146104105780638e539e8c146104215780638f02bb5b1461043457806391ddadf41461044757600080fd5b8063715018a6146103bf57806379cc6790146103c75780637ecebe00146103da5780638456cb59146103ed57600080fd5b80633f4ba83a116101a8578063587cde1e11610177578063587cde1e146103055780635c19a95c146103495780635c975abb1461035c5780636fcfff451461036e57806370a082311461039657600080fd5b80633f4ba83a146102cd57806340c10f19146102d757806342966c68146102ea5780634bf5d7e9146102fd57600080fd5b8063313ce567116101e4578063313ce5671461027c57806332cb6b0c1461028b5780633644e515146102b25780633a46b1a8146102ba57600080fd5b806306fdde0314610216578063095ea7b31461023457806318160ddd1461025757806323b872dd14610269575b600080fd5b61021e61054e565b60405161022b9190611fd8565b60405180910390f35b610247610242366004612007565b6105e0565b604051901515815260200161022b565b6002545b60405190815260200161022b565b610247610277366004612031565b6105fa565b6040516012815260200161022b565b61025b7f000000000000000000000000000000000000000000000000000000000000000081565b61025b61061e565b61025b6102c8366004612007565b61062d565b6102d56106b3565b005b6102d56102e5366004612007565b6106d7565b6102d56102f836600461206e565b61078e565b61021e6107ad565b610331610313366004612087565b6001600160a01b039081166000908152600960205260409020541690565b6040516001600160a01b03909116815260200161022b565b6102d5610357366004612087565b610825565b600554600160a01b900460ff16610247565b61038161037c366004612087565b610830565b60405163ffffffff909116815260200161022b565b61025b6103a4366004612087565b6001600160a01b031660009081526020819052604090205490565b6102d561083b565b6102d56103d5366004612007565b61084d565b61025b6103e8366004612087565b610862565b6102d561086d565b6103fd610885565b60405161022b97969594939291906120a2565b6005546001600160a01b0316610331565b61025b61042f36600461206e565b6108cb565b6102d561044236600461206e565b610935565b61044f61099b565b60405165ffffffffffff909116815260200161022b565b61021e6109a5565b61025b61047c366004612087565b6109b4565b61024761048f366004612007565b6109e4565b61025b600d5481565b6102d56104ab36600461214b565b6109f2565b6102d56104be3660046121a3565b610aaf565b61025b6104d136600461220e565b6001600160a01b03918216600090815260016020908152604080832093909416825291909152205490565b61050f61050a366004612241565b610be9565b60408051825165ffffffffffff1681526020928301516001600160d01b0316928101929092520161022b565b6102d5610549366004612087565b610c0e565b60606003805461055d90612281565b80601f016020809104026020016040519081016040528092919081815260200182805461058990612281565b80156105d65780601f106105ab576101008083540402835291602001916105d6565b820191906000526020600020905b8154815290600101906020018083116105b957829003601f168201915b5050505050905090565b6000336105ee818585610c61565b60019150505b92915050565b600033610608858285610c73565b610613858585610cf1565b506001949350505050565b6000610628610d50565b905090565b60008061063861099b565b90508065ffffffffffff16831061067857604051637669fc0f60e11b81526004810184905265ffffffffffff821660248201526044015b60405180910390fd5b6106a261068484610e7b565b6001600160a01b0386166000908152600a6020526040902090610eb2565b6001600160d01b0316949350505050565b6106bb610f68565b6106c3610f95565b6106cb610fbf565b6106d56001600c55565b565b6106df610f68565b6106e7610f95565b7f00000000000000000000000000000000000000000000000000000000000000008161071260025490565b61071c91906122d1565b11156107765760405162461bcd60e51b8152602060048201526024808201527f45524332303a2043616e6e6f74206d696e74206265796f6e64206d617820737560448201526370706c7960e01b606482015260840161066f565b6107808282611014565b61078a6001600c55565b5050565b610796610f95565b6107a0338261104a565b6107aa6001600c55565b50565b60606107b7611080565b65ffffffffffff166107c761099b565b65ffffffffffff16146107ed576040516301bfc1c560e61b815260040160405180910390fd5b5060408051808201909152601d81527f6d6f64653d626c6f636b6e756d6265722666726f6d3d64656661756c74000000602082015290565b3361078a818361108b565b60006105f4826110fd565b610843610f68565b6106d5600061111f565b610858823383610c73565b61078a828261104a565b60006105f482611171565b610875610f68565b61087d610f95565b6106cb61118f565b6000606080600080600060606108996111d2565b6108a16111ff565b60408051600080825260208201909252600f60f81b9b939a50919850469750309650945092509050565b6000806108d661099b565b90508065ffffffffffff16831061091157604051637669fc0f60e11b81526004810184905265ffffffffffff8216602482015260440161066f565b61092561091d84610e7b565b600b90610eb2565b6001600160d01b03169392505050565b61093d610f68565b610945610f95565b600a81111561098c5760405162461bcd60e51b815260206004820152601360248201527208aa486646074408ccaca40e8dede40d0d2ced606b1b604482015260640161066f565b600d8190556107aa6001600c55565b6000610628611080565b60606004805461055d90612281565b6001600160a01b0381166000908152600a602052604081206109d59061122c565b6001600160d01b031692915050565b6000336105ee818585610cf1565b83421115610a1657604051632341d78760e11b81526004810185905260240161066f565b604080517fe48329057bfd03d55e49b547132e39cffd9c1820ad7b9d4c5307691425d15adf60208201526001600160a01b038816918101919091526060810186905260808101859052600090610a9090610a889060a00160405160208183030381529060405280519060200120611265565b858585611292565b9050610a9c81876112c0565b610aa6818861108b565b50505050505050565b83421115610ad35760405163313c898160e11b81526004810185905260240161066f565b60007f6e71edae12b1b97f4d1f60370fef10105fa2faae0126114a169c64845d6126c9888888610b208c6001600160a01b0316600090815260086020526040902080546001810190915590565b6040805160208101969096526001600160a01b0394851690860152929091166060840152608083015260a082015260c0810186905260e0016040516020818303038152906040528051906020012090506000610b7b82611265565b90506000610b8b82878787611292565b9050896001600160a01b0316816001600160a01b031614610bd2576040516325c0072360e11b81526001600160a01b0380831660048301528b16602482015260440161066f565b610bdd8a8a8a610c61565b50505050505050505050565b6040805180820190915260008082526020820152610c078383611313565b9392505050565b610c16610f68565b6001600160a01b038116610c4057604051631e4fbdf760e01b81526000600482015260240161066f565b6107aa8161111f565b6000610c0782846122e4565b6000610c078284612303565b610c6e8383836001611349565b505050565b6001600160a01b038381166000908152600160209081526040808320938616835292905220546000198114610ceb5781811015610cdc57604051637dc7a0d960e11b81526001600160a01b0384166004820152602481018290526044810183905260640161066f565b610ceb84848484036000611349565b50505050565b6001600160a01b038316610d1b57604051634b637e8f60e11b81526000600482015260240161066f565b6001600160a01b038216610d455760405163ec442f0560e01b81526000600482015260240161066f565b610c6e83838361141e565b6000306001600160a01b037f000000000000000000000000000000000000000000000000000000000000000016148015610da957507f000000000000000000000000000000000000000000000000000000000000000046145b15610dd357507f000000000000000000000000000000000000000000000000000000000000000090565b610628604080517f8b73c3c69bb8fe3d512ecc4cf759cc79239f7b179b0ffacaa9a75d522b39400f60208201527f0000000000000000000000000000000000000000000000000000000000000000918101919091527f000000000000000000000000000000000000000000000000000000000000000060608201524660808201523060a082015260009060c00160405160208183030381529060405280519060200120905090565b600065ffffffffffff821115610eae576040516306dfcc6560e41b8152603060048201526024810183905260440161066f565b5090565b815460009081816005811115610f11576000610ecd846114b9565b610ed79085612322565b60008881526020902090915081015465ffffffffffff9081169087161015610f0157809150610f0f565b610f0c8160016122d1565b92505b505b6000610f1f87878585611612565b90508015610f5a57610f4487610f36600184612322565b600091825260209091200190565b54600160301b90046001600160d01b0316610f5d565b60005b979650505050505050565b6005546001600160a01b031633146106d55760405163118cdaa760e01b815233600482015260240161066f565b6002600c5403610fb857604051633ee5aeb560e01b815260040160405180910390fd5b6002600c55565b610fc7611674565b6005805460ff60a01b191690557f5db9ee0a495bf2e6ff9c91a7834c1ba4fdd244a5e8aa4e537bd38aeae4b073aa335b6040516001600160a01b03909116815260200160405180910390a1565b6001600160a01b03821661103e5760405163ec442f0560e01b81526000600482015260240161066f565b61078a6000838361141e565b6001600160a01b03821661107457604051634b637e8f60e11b81526000600482015260240161066f565b61078a8260008361141e565b600061062843610e7b565b6001600160a01b0382811660008181526009602052604080822080548686166001600160a01b0319821681179092559151919094169392849290917f3134e8a2e6d97e929a7e54011ea5485d7d196dd5f0ba4d4ef95803e8e3fc257f9190a4610c6e81836110f88661169e565b6116bc565b6001600160a01b0381166000908152600a60205260408120546105f490611828565b600580546001600160a01b038381166001600160a01b0319831681179093556040519116919082907f8be0079c531659141344cd1fd0a4f28419497f9722a3daafe3b4186f6b6457e090600090a35050565b6001600160a01b0381166000908152600860205260408120546105f4565b611197611859565b6005805460ff60a01b1916600160a01b1790557f62e78cea01bee320cd4e420270b5ea74000d11b0c9f74754ebdbfc544b05a258610ff73390565b60606106287f00000000000000000000000000000000000000000000000000000000000000006006611884565b60606106287f00000000000000000000000000000000000000000000000000000000000000006007611884565b8054600090801561125c5761124683610f36600184612322565b54600160301b90046001600160d01b0316610c07565b60009392505050565b60006105f4611272610d50565b8360405161190160f01b8152600281019290925260228201526042902090565b6000806000806112a48888888861192f565b9250925092506112b482826119fe565b50909695505050505050565b6001600160a01b0382166000908152600860205260409020805460018101909155818114610c6e576040516301d4b62360e61b81526001600160a01b03841660048201526024810182905260440161066f565b60408051808201909152600080825260208201526001600160a01b0383166000908152600a60205260409020610c079083611ab7565b6001600160a01b0384166113735760405163e602df0560e01b81526000600482015260240161066f565b6001600160a01b03831661139d57604051634a1406b160e11b81526000600482015260240161066f565b6001600160a01b0380851660009081526001602090815260408083209387168352929052208290558015610ceb57826001600160a01b0316846001600160a01b03167f8c5be1e5ebec7d5bd14f71427d1e84f3dd0314c0f7b2291e5b200ac8c7c3b9258460405161141091815260200190565b60405180910390a350505050565b60006064600d54836114309190612335565b61143a9190612362565b905060006114488284612322565b90506001600160a01b0385161580159061146a57506001600160a01b03841615155b80156114765750600082115b156114a757611497856114916005546001600160a01b031690565b84611b27565b6114a2858583611b27565b6114b2565b6114b2858585611b27565b5050505050565b6000600182116114c7575090565b816001600160801b82106114e05760809190911c9060401b5b6801000000000000000082106114fb5760409190911c9060201b5b64010000000082106115125760209190911c9060101b5b6201000082106115275760109190911c9060081b5b610100821061153b5760089190911c9060041b5b6010821061154e5760049190911c9060021b5b6004821061155a5760011b5b600302600190811c908185816115725761157261234c565b048201901c9050600181858161158a5761158a61234c565b048201901c905060018185816115a2576115a261234c565b048201901c905060018185816115ba576115ba61234c565b048201901c905060018185816115d2576115d261234c565b048201901c905060018185816115ea576115ea61234c565b048201901c90506116098185816116035761160361234c565b04821190565b90039392505050565b60005b8183101561166c5760006116298484611b8e565b60008781526020902090915065ffffffffffff86169082015465ffffffffffff16111561165857809250611666565b6116638160016122d1565b93505b50611615565b509392505050565b600554600160a01b900460ff166106d557604051638dfc202b60e01b815260040160405180910390fd5b6001600160a01b0381166000908152602081905260408120546105f4565b816001600160a01b0316836001600160a01b0316141580156116de5750600081115b15610c6e576001600160a01b03831615611786576001600160a01b0383166000908152600a60205260408120819061172190610c5561171c86611ba9565b611bdd565b6001600160d01b031691506001600160d01b03169150846001600160a01b03167fdec2bacdd2f05b59de34da9b523dff8be42e5e38e818c82fdb0bae774387a724838360405161177b929190918252602082015260400190565b60405180910390a250505b6001600160a01b03821615610c6e576001600160a01b0382166000908152600a6020526040812081906117bf90610c4961171c86611ba9565b6001600160d01b031691506001600160d01b03169150836001600160a01b03167fdec2bacdd2f05b59de34da9b523dff8be42e5e38e818c82fdb0bae774387a7248383604051611819929190918252602082015260400190565b60405180910390a25050505050565b600063ffffffff821115610eae576040516306dfcc6560e41b8152602060048201526024810183905260440161066f565b600554600160a01b900460ff16156106d55760405163d93c066560e01b815260040160405180910390fd5b606060ff831461189e5761189783611c16565b90506105f4565b8180546118aa90612281565b80601f01602080910402602001604051908101604052809291908181526020018280546118d690612281565b80156119235780601f106118f857610100808354040283529160200191611923565b820191906000526020600020905b81548152906001019060200180831161190657829003601f168201915b505050505090506105f4565b600080807f7fffffffffffffffffffffffffffffff5d576e7357a4501ddfe92f46681b20a084111561196a57506000915060039050826119f4565b604080516000808252602082018084528a905260ff891692820192909252606081018790526080810186905260019060a0016020604051602081039080840390855afa1580156119be573d6000803e3d6000fd5b5050604051601f1901519150506001600160a01b0381166119ea575060009250600191508290506119f4565b9250600091508190505b9450945094915050565b6000826003811115611a1257611a12612384565b03611a1b575050565b6001826003811115611a2f57611a2f612384565b03611a4d5760405163f645eedf60e01b815260040160405180910390fd5b6002826003811115611a6157611a61612384565b03611a825760405163fce698f760e01b81526004810182905260240161066f565b6003826003811115611a9657611a96612384565b0361078a576040516335e2f38360e21b81526004810182905260240161066f565b6040805180820190915260008082526020820152826000018263ffffffff1681548110611ae657611ae661239a565b60009182526020918290206040805180820190915291015465ffffffffffff81168252600160301b90046001600160d01b0316918101919091529392505050565b611b32838383611c55565b6001600160a01b038316611b83576000611b4b60025490565b90506001600160d01b0380821115611b8057604051630e58ae9360e11b8152600481018390526024810182905260440161066f565b50505b610c6e838383611c68565b6000611b9d6002848418612362565b610c07908484166122d1565b60006001600160d01b03821115610eae576040516306dfcc6560e41b815260d060048201526024810183905260440161066f565b600080611c09611beb61099b565b611c01611bf78861122c565b868863ffffffff16565b879190611cde565b915091505b935093915050565b60606000611c2383611cec565b604080516020808252818301909252919250600091906020820181803683375050509182525060208101929092525090565b611c5d611859565b610c6e838383611d14565b6001600160a01b038316611c8a57611c87600b610c4961171c84611ba9565b50505b6001600160a01b038216611cac57611ca9600b610c5561171c84611ba9565b50505b6001600160a01b03838116600090815260096020526040808220548584168352912054610c6e929182169116836116bc565b600080611c09858585611e3e565b600060ff8216601f8111156105f457604051632cd44ac360e21b815260040160405180910390fd5b6001600160a01b038316611d3f578060026000828254611d3491906122d1565b90915550611db19050565b6001600160a01b03831660009081526020819052604090205481811015611d925760405163391434e360e21b81526001600160a01b0385166004820152602481018290526044810183905260640161066f565b6001600160a01b03841660009081526020819052604090209082900390555b6001600160a01b038216611dcd57600280548290039055611dec565b6001600160a01b03821660009081526020819052604090208054820190555b816001600160a01b0316836001600160a01b03167fddf252ad1be2c89b69c2b068fc378daa952ba7f163c4a11628f55a4df523b3ef83604051611e3191815260200190565b60405180910390a3505050565b825460009081908015611f37576000611e5c87610f36600185612322565b805490915065ffffffffffff80821691600160301b90046001600160d01b0316908816821115611e9f57604051632520601d60e01b815260040160405180910390fd5b8765ffffffffffff168265ffffffffffff1603611ed857825465ffffffffffff16600160301b6001600160d01b03891602178355611f29565b6040805180820190915265ffffffffffff808a1682526001600160d01b03808a1660208085019182528d54600181018f5560008f81529190912094519151909216600160301b029216919091179101555b9450859350611c0e92505050565b50506040805180820190915265ffffffffffff80851682526001600160d01b0380851660208085019182528854600181018a5560008a815291822095519251909316600160301b029190931617920191909155905081611c0e565b6000815180845260005b81811015611fb857602081850181015186830182015201611f9c565b506000602082860101526020601f19601f83011685010191505092915050565b602081526000610c076020830184611f92565b80356001600160a01b038116811461200257600080fd5b919050565b6000806040838503121561201a57600080fd5b61202383611feb565b946020939093013593505050565b60008060006060848603121561204657600080fd5b61204f84611feb565b925061205d60208501611feb565b929592945050506040919091013590565b60006020828403121561208057600080fd5b5035919050565b60006020828403121561209957600080fd5b610c0782611feb565b60ff60f81b8816815260e0602082015260006120c160e0830189611f92565b82810360408401526120d38189611f92565b606084018890526001600160a01b038716608085015260a0840186905283810360c08501528451808252602080870193509091019060005b8181101561212957835183526020938401939092019160010161210b565b50909b9a5050505050505050505050565b803560ff8116811461200257600080fd5b60008060008060008060c0878903121561216457600080fd5b61216d87611feb565b955060208701359450604087013593506121896060880161213a565b9598949750929560808101359460a0909101359350915050565b600080600080600080600060e0888a0312156121be57600080fd5b6121c788611feb565b96506121d560208901611feb565b955060408801359450606088013593506121f16080890161213a565b9699959850939692959460a0840135945060c09093013592915050565b6000806040838503121561222157600080fd5b61222a83611feb565b915061223860208401611feb565b90509250929050565b6000806040838503121561225457600080fd5b61225d83611feb565b9150602083013563ffffffff8116811461227657600080fd5b809150509250929050565b600181811c9082168061229557607f821691505b6020821081036122b557634e487b7160e01b600052602260045260246000fd5b50919050565b634e487b7160e01b600052601160045260246000fd5b808201808211156105f4576105f46122bb565b6001600160d01b0381811683821601908111156105f4576105f46122bb565b6001600160d01b0382811682821603908111156105f4576105f46122bb565b818103818111156105f4576105f46122bb565b80820281158282048414176105f4576105f46122bb565b634e487b7160e01b600052601260045260246000fd5b60008261237f57634e487b7160e01b600052601260045260246000fd5b500490565b634e487b7160e01b600052602160045260246000fd5b634e487b7160e01b600052603260045260246000fdfea2646970667358221220b0d2534bcdf5e30cd35e639490b7694112803933f9f91f0a66015d535bcedbf864736f6c634300081c0033dec2bacdd2f05b59de34da9b523dff8be42e5e38e818c82fdb0bae774387a724","bytecodeSha1":"da39a3ee5e6b4b0d3255bfef95601890afd80709","compiler":{"evm_version":"istanbul","optimizer":{"enabled":true,"runs":200},"version":"0.8.28+commit.7893614a"},"contractName":"DodoCoin","language":"Solidity","natspec":{"errors":{"CheckpointUnorderedInsertion()":[{"details":"A value was attempted to be inserted on a past checkpoint."}],"ECDSAInvalidSignature()":[{"details":"The signature derives the `address(0)`."}],"ECDSAInvalidSignatureLength(uint256)":[{"details":"The signature has an invalid length."}],"ECDSAInvalidSignatureS(bytes32)":[{"details":"The signature has an S value that is in the upper half order."}],"ERC20ExceededSafeSupply(uint256,uint256)":[{"details":"Total supply cap has been exceeded, introducing a risk of votes overflowing."}],"ERC20InsufficientAllowance(address,uint256,uint256)":[{"details":"Indicates a failure with the `spender`’s `allowance`. Used in transfers.","params":{"allowance":"Amount of tokens a `spender` is allowed to operate with.","needed":"Minimum amount required to perform a transfer.","spender":"Address that may be allowed to operate on tokens without being their owner."}}],"ERC20InsufficientBalance(address,uint256,uint256)":[{"details":"Indicates an error related to the current `balance` of a `sender`. Used in transfers.","params":{"balance":"Current balance for the interacting account.","needed":"Minimum amount required to perform a transfer.","sender":"Address whose tokens are being transferred."}}],"ERC20InvalidApprover(address)":[{"details":"Indicates a failure with the `approver` of a token to be approved. Used in approvals.","params":{"approver":"Address initiating an approval operation."}}],"ERC20InvalidReceiver(address)":[{"details":"Indicates a failure with the token `receiver`. Used in transfers.","params":{"receiver":"Address to which tokens are being transferred."}}],"ERC20InvalidSender(address)":[{"details":"Indicates a failure with the token `sender`. Used in transfers.","params":{"sender":"Address whose tokens are being transferred."}}],"ERC20InvalidSpender(address)":[{"details":"Indicates a failure with the `spender` to be approved. Used in approvals.","params":{"spender":"Address that may be allowed to operate on tokens without being their owner."}}],"ERC2612ExpiredSignature(uint256)":[{"details":"Permit deadline has expired."}],"ERC2612InvalidSigner(address,address)":[{"details":"Mismatched signature."}],"ERC5805FutureLookup(uint256,uint48)":[{"details":"Lookup to future votes is not available."}],"ERC6372InconsistentClock()":[{"details":"The clock was incorrectly modified."}],"EnforcedPause()":[{"details":"The operation failed because the contract is paused."}],"ExpectedPause()":[{"details":"The operation failed because the contract is not paused."}],"InvalidAccountNonce(address,uint256)":[{"details":"The nonce used for an `account` is not the expected current nonce."}],"OwnableInvalidOwner(address)":[{"details":"The owner is not a valid owner account. (eg. `address(0)`)"}],"OwnableUnauthorizedAccount(address)":[{"details":"The caller account is not authorized to perform an operation."}],"ReentrancyGuardReentrantCall()":[{"details":"Unauthorized reentrant call."}],"SafeCastOverflowedUintDowncast(uint8,uint256)":[{"details":"Value doesn't fit in an uint of `bits` size."}],"VotesExpiredSignature(uint256)":[{"details":"The signature used has expired."}]},"kind":"dev","methods":{"CLOCK_MODE()":{"details":"Machine-readable description of the clock as specified in ERC-6372."},"DOMAIN_SEPARATOR()":{"details":"Returns the domain separator used in the encoding of the signature for {permit}, as defined by {EIP712}."},"allowance(address,address)":{"details":"See {IERC20-allowance}."},"approve(address,uint256)":{"details":"See {IERC20-approve}. NOTE: If `value` is the maximum `uint256`, the allowance is not updated on `transferFrom`. This is semantically equivalent to an infinite approval. Requirements: - `spender` cannot be the zero address."},"balanceOf(address)":{"details":"See {IERC20-balanceOf}."},"burnFrom(address,uint256)":{"details":"Destroys a `value` amount of tokens from `account`, deducting from the caller's allowance. See {ERC20-_burn} and {ERC20-allowance}. Requirements: - the caller must have allowance for ``accounts``'s tokens of at least `value`."},"checkpoints(address,uint32)":{"details":"Get the `pos`-th checkpoint for `account`."},"clock()":{"details":"Clock used for flagging checkpoints. Can be overridden to implement timestamp based checkpoints (and voting), in which case {CLOCK_MODE} should be overridden as well to match."},"decimals()":{"details":"Returns the number of decimals used to get its user representation. For example, if `decimals` equals `2`, a balance of `505` tokens should be displayed to a user as `5.05` (`505 / 10 ** 2`). Tokens usually opt for a value of 18, imitating the relationship between Ether and Wei. This is the default value returned by this function, unless it's overridden. NOTE: This information is only used for _display_ purposes: it in no way affects any of the arithmetic of the contract, including {IERC20-balanceOf} and {IERC20-transfer}."},"delegate(address)":{"details":"Delegates votes from the sender to `delegatee`."},"delegateBySig(address,uint256,uint256,uint8,bytes32,bytes32)":{"details":"Delegates votes from signer to `delegatee`."},"delegates(address)":{"details":"Returns the delegate that `account` has chosen."},"eip712Domain()":{"details":"See {IERC-5267}."},"getPastTotalSupply(uint256)":{"details":"Returns the total supply of votes available at a specific moment in the past. If the `clock()` is configured to use block numbers, this will return the value at the end of the corresponding block. NOTE: This value is the sum of all available votes, which is not necessarily the sum of all delegated votes. Votes that have not been delegated are still part of total supply, even though they would not participate in a vote. Requirements: - `timepoint` must be in the past. If operating using block numbers, the block must be already mined."},"getPastVotes(address,uint256)":{"details":"Returns the amount of votes that `account` had at a specific moment in the past. If the `clock()` is configured to use block numbers, this will return the value at the end of the corresponding block. Requirements: - `timepoint` must be in the past. If operating using block numbers, the block must be already mined."},"getVotes(address)":{"details":"Returns the current amount of votes that `account` has."},"name()":{"details":"Returns the name of the token."},"numCheckpoints(address)":{"details":"Get number of checkpoints for `account`."},"owner()":{"details":"Returns the address of the current owner."},"paused()":{"details":"Returns true if the contract is paused, and false otherwise."},"permit(address,address,uint256,uint256,uint8,bytes32,bytes32)":{"details":"Sets `value` as the allowance of `spender` over ``owner``'s tokens, given ``owner``'s signed approval. IMPORTANT: The same issues {IERC20-approve} has related to transaction ordering also apply here. Emits an {Approval} event. Requirements: - `spender` cannot be the zero address. - `deadline` must be a timestamp in the future. - `v`, `r` and `s` must be a valid `secp256k1` signature from `owner` over the EIP712-formatted function arguments. - the signature must use ``owner``'s current nonce (see {nonces}). For more information on the signature format, see the https://eips.ethereum.org/EIPS/eip-2612#specification[relevant EIP section]. CAUTION: See Security Considerations above."},"renounceOwnership()":{"details":"Leaves the contract without owner. It will not be possible to call `onlyOwner` functions. Can only be called by the current owner. NOTE: Renouncing ownership will leave the contract without an owner, thereby disabling any functionality that is only available to the owner."},"symbol()":{"details":"Returns the symbol of the token, usually a shorter version of the name."},"totalSupply()":{"details":"See {IERC20-totalSupply}."},"transfer(address,uint256)":{"details":"See {IERC20-transfer}. Requirements: - `to` cannot be the zero address. - the caller must have a balance of at least `value`."},"transferFrom(address,address,uint256)":{"details":"See {IERC20-transferFrom}. Skips emitting an {Approval} event indicating an allowance update. This is not required by the ERC. See {xref-ERC20-_approve-address-address-uint256-bool-}[_approve]. NOTE: Does not update the allowance if the current allowance is the maximum `uint256`. Requirements: - `from` and `to` cannot be the zero address. - `from` must have a balance of at least `value`. - the caller must have allowance for ``from``'s tokens of at least `value`."},"transferOwnership(address)":{"details":"Transfers ownership of the contract to a new account (`newOwner`). Can only be called by the current owner."}},"version":1},"opcodes":"PUSH1 0x80 PUSH1 0x40 MSTORE CALLVALUE DUP1 ISZERO PUSH2 0x10 JUMPI PUSH1 0x0 DUP1 REVERT JUMPDEST POP PUSH1 0x4 CALLDATASIZE LT PUSH2 0x211 JUMPI PUSH1 0x0 CALLDATALOAD PUSH1 0xE0 SHR DUP1 PUSH4 0x715018A6 GT PUSH2 0x125 JUMPI DUP1 PUSH4 0x95D89B41 GT PUSH2 0xAD JUMPI DUP1 PUSH4 0xC3CDA520 GT PUSH2 0x7C JUMPI DUP1 PUSH4 0xC3CDA520 EQ PUSH2 0x49D JUMPI DUP1 PUSH4 0xD505ACCF EQ PUSH2 0x4B0 JUMPI DUP1 PUSH4 0xDD62ED3E EQ PUSH2 0x4C3 JUMPI DUP1 PUSH4 0xF1127ED8 EQ PUSH2 0x4FC JUMPI DUP1 PUSH4 0xF2FDE38B EQ PUSH2 0x53B JUMPI PUSH1 0x0 DUP1 REVERT JUMPDEST DUP1 PUSH4 0x95D89B41 EQ PUSH2 0x466 JUMPI DUP1 PUSH4 0x9AB24EB0 EQ PUSH2 0x46E JUMPI DUP1 PUSH4 0xA9059CBB EQ PUSH2 0x481 JUMPI DUP1 PUSH4 0xACB2AD6F EQ PUSH2 0x494 JUMPI PUSH1 0x0 DUP1 REVERT JUMPDEST DUP1 PUSH4 0x84B0196E GT PUSH2 0xF4 JUMPI DUP1 PUSH4 0x84B0196E EQ PUSH2 0x3F5 JUMPI DUP1 PUSH4 0x8DA5CB5B EQ PUSH2 0x410 JUMPI DUP1 PUSH4 0x8E539E8C EQ PUSH2 0x421 JUMPI DUP1 PUSH4 0x8F02BB5B EQ PUSH2 0x434 JUMPI DUP1 PUSH4 0x91DDADF4 EQ PUSH2 0x447 JUMPI PUSH1 0x0 DUP1 REVERT JUMPDEST DUP1 PUSH4 0x715018A6 EQ PUSH2 0x3BF JUMPI DUP1 PUSH4 0x79CC6790 EQ PUSH2 0x3C7 JUMPI DUP1 PUSH4 0x7ECEBE00 EQ PUSH2 0x3DA JUMPI DUP1 PUSH4 0x8456CB59 EQ PUSH2 0x3ED JUMPI PUSH1 0x0 DUP1 REVERT JUMPDEST DUP1 PUSH4 0x3F4BA83A GT PUSH2 0x1A8 JUMPI DUP1 PUSH4 0x587CDE1E GT PUSH2 0x177 JUMPI DUP1 PUSH4 0x587CDE1E EQ PUSH2 0x305 JUMPI DUP1 PUSH4 0x5C19A95C EQ PUSH2 0x349 JUMPI DUP1 PUSH4 0x5C975ABB EQ PUSH2 0x35C JUMPI DUP1 PUSH4 0x6FCFFF45 EQ PUSH2 0x36E JUMPI DUP1 PUSH4 0x70A08231 EQ PUSH2 0x396 JUMPI PUSH1 0x0 DUP1 REVERT JUMPDEST DUP1 PUSH4 0x3F4BA83A EQ PUSH2 0x2CD JUMPI DUP1 PUSH4 0x40C10F19 EQ PUSH2 0x2D7 JUMPI DUP1 PUSH4 0x42966C68 EQ PUSH2 0x2EA JUMPI DUP1 PUSH4 0x4BF5D7E9 EQ PUSH2 0x2FD JUMPI PUSH1 0x0 DUP1 REVERT JUMPDEST DUP1 PUSH4 0x313CE567 GT PUSH2 0x1E4 JUMPI DUP1 PUSH4 0x313CE567 EQ PUSH2 0x27C JUMPI DUP1 PUSH4 0x32CB6B0C EQ PUSH2 0x28B JUMPI DUP1 PUSH4 0x3644E515 EQ PUSH2 0x2B2 JUMPI DUP1 PUSH4 0x3A46B1A8 EQ PUSH2 0x2BA JUMPI PUSH1 0x0 DUP1 REVERT JUMPDEST DUP1 PUSH4 0x6FDDE03 EQ PUSH2 0x216 JUMPI DUP1 PUSH4 0x95EA7B3 EQ PUSH2 0x234 JUMPI DUP1 PUSH4 0x18160DDD EQ PUSH2 0x257 JUMPI DUP1 PUSH4 0x23B872DD EQ PUSH2 0x269 JUMPI JUMPDEST PUSH1 0x0 DUP1 REVERT JUMPDEST PUSH2 0x21E PUSH2 0x54E JUMP JUMPDEST PUSH1 0x40 MLOAD PUSH2 0x22B SWAP2 SWAP1 PUSH2 0x1FD8 JUMP JUMPDEST PUSH1 0x40 MLOAD DUP1 SWAP2 SUB SWAP1 RETURN JUMPDEST PUSH2 0x247 PUSH2 0x242 CALLDATASIZE PUSH1 0x4 PUSH2 0x2007 JUMP JUMPDEST PUSH2 0x5E0 JUMP JUMPDEST PUSH1 0x40 MLOAD SWAP1 ISZERO ISZERO DUP2 MSTORE PUSH1 0x20 ADD PUSH2 0x22B JUMP JUMPDEST PUSH1 0x2 SLOAD JUMPDEST PUSH1 0x40 MLOAD SWAP1 DUP2 MSTORE PUSH1 0x20 ADD PUSH2 0x22B JUMP JUMPDEST PUSH2 0x247 PUSH2 0x277 CALLDATASIZE PUSH1 0x4 PUSH2 0x2031 JUMP JUMPDEST PUSH2 0x5FA JUMP JUMPDEST PUSH1 0x40 MLOAD PUSH1 0x12 DUP2 MSTORE PUSH1 0x20 ADD PUSH2 0x22B JUMP JUMPDEST PUSH2 0x25B PUSH32 0x0 DUP2 JUMP JUMPDEST PUSH2 0x25B PUSH2 0x61E JUMP JUMPDEST PUSH2 0x25B PUSH2 0x2C8 CALLDATASIZE PUSH1 0x4 PUSH2 0x2007 JUMP JUMPDEST PUSH2 0x62D JUMP JUMPDEST PUSH2 0x2D5 PUSH2 0x6B3 JUMP JUMPDEST STOP JUMPDEST PUSH2 0x2D5 PUSH2 0x2E5 CALLDATASIZE PUSH1 0x4 PUSH2 0x2007 JUMP JUMPDEST PUSH2 0x6D7 JUMP JUMPDEST PUSH2 0x2D5 PUSH2 0x2F8 CALLDATASIZE PUSH1 0x4 PUSH2 0x206E JUMP JUMPDEST PUSH2 0x78E JUMP JUMPDEST PUSH2 0x21E PUSH2 0x7AD JUMP JUMPDEST PUSH2 0x331 PUSH2 0x313 CALLDATASIZE PUSH1 0x4 PUSH2 0x2087 JUMP JUMPDEST PUSH1 0x1 PUSH1 0x1 PUSH1 0xA0 SHL SUB SWAP1 DUP2 AND PUSH1 0x0 SWAP1 DUP2 MSTORE PUSH1 0x9 PUSH1 0x20 MSTORE PUSH1 0x40 SWAP1 KECCAK256 SLOAD AND SWAP1 JUMP JUMPDEST PUSH1 0x40 MLOAD PUSH1 0x1 PUSH1 0x1 PUSH1 0xA0 SHL SUB SWAP1 SWAP2 AND DUP2 MSTORE PUSH1 0x20 ADD PUSH2 0x22B JUMP JUMPDEST PUSH2 0x2D5 PUSH2 0x357 CALLDATASIZE PUSH1 0x4 PUSH2 0x2087 JUMP JUMPDEST PUSH2 0x825 JUMP JUMPDEST PUSH1 0x5 SLOAD PUSH1 0x1 PUSH1 0xA0 SHL SWAP1 DIV PUSH1 0xFF AND PUSH2 0x247 JUMP JUMPDEST PUSH2 0x381 PUSH2 0x37C CALLDATASIZE PUSH1 0x4 PUSH2 0x2087 JUMP JUMPDEST PUSH2 0x830 JUMP JUMPDEST PUSH1 0x40 MLOAD PUSH4 0xFFFFFFFF SWAP1 SWAP2 AND DUP2 MSTORE PUSH1 0x20 ADD PUSH2 0x22B JUMP JUMPDEST PUSH2 0x25B PUSH2 0x3A4 CALLDATASIZE PUSH1 0x4 PUSH2 0x2087 JUMP JUMPDEST PUSH1 0x1 PUSH1 0x1 PUSH1 0xA0 SHL SUB AND PUSH1 0x0 SWAP1 DUP2 MSTORE PUSH1 0x20 DUP2 SWAP1 MSTORE PUSH1 0x40 SWAP1 KECCAK256 SLOAD SWAP1 JUMP JUMPDEST PUSH2 0x2D5 PUSH2 0x83B JUMP JUMPDEST PUSH2 0x2D5 PUSH2 0x3D5 CALLDATASIZE PUSH1 0x4 PUSH2 0x2007 JUMP JUMPDEST PUSH2 0x84D JUMP JUMPDEST PUSH2 0x25B PUSH2 0x3E8 CALLDATASIZE PUSH1 0x4 PUSH2 0x2087 JUMP JUMPDEST PUSH2 0x862 JUMP JUMPDEST PUSH2 0x2D5 PUSH2 0x86D JUMP JUMPDEST PUSH2 0x3FD PUSH2 0x885 JUMP JUMPDEST PUSH1 0x40 MLOAD PUSH2 0x22B SWAP8 SWAP7 SWAP6 SWAP5 SWAP4 SWAP3 SWAP2 SWAP1 PUSH2 0x20A2 JUMP JUMPDEST PUSH1 0x5 SLOAD PUSH1 0x1 PUSH1 0x1 PUSH1 0xA0 SHL SUB AND PUSH2 0x331 JUMP JUMPDEST PUSH2 0x25B PUSH2 0x42F CALLDATASIZE PUSH1 0x4 PUSH2 0x206E JUMP JUMPDEST PUSH2 0x8CB JUMP JUMPDEST PUSH2 0x2D5 PUSH2 0x442 CALLDATASIZE PUSH1 0x4 PUSH2 0x206E JUMP JUMPDEST PUSH2 0x935 JUMP JUMPDEST PUSH2 0x44F PUSH2 0x99B JUMP JUMPDEST PUSH1 0x40 MLOAD PUSH6 0xFFFFFFFFFFFF SWAP1 SWAP2 AND DUP2 MSTORE PUSH1 0x20 ADD PUSH2 0x22B JUMP JUMPDEST PUSH2 0x21E PUSH2 0x9A5 JUMP JUMPDEST PUSH2 0x25B PUSH2 0x47C CALLDATASIZE PUSH1 0x4 PUSH2 0x2087 JUMP JUMPDEST PUSH2 0x9B4 JUMP JUMPDEST PUSH2 0x247 PUSH2 0x48F CALLDATASIZE PUSH1 0x4 PUSH2 0x2007 JUMP JUMPDEST PUSH2 0x9E4 JUMP JUMPDEST PUSH2 0x25B PUSH1 0xD SLOAD DUP2 JUMP JUMPDEST PUSH2 0x2D5 PUSH2 0x4AB CALLDATASIZE PUSH1 0x4 PUSH2 0x214B JUMP JUMPDEST PUSH2 0x9F2 JUMP JUMPDEST PUSH2 0x2D5 PUSH2 0x4BE CALLDATASIZE PUSH1 0x4 PUSH2 0x21A3 JUMP JUMPDEST PUSH2 0xAAF JUMP JUMPDEST PUSH2 0x25B PUSH2 0x4D1 CALLDATASIZE PUSH1 0x4 PUSH2 0x220E JUMP JUMPDEST PUSH1 0x1 PUSH1 0x1 PUSH1 0xA0 SHL SUB SWAP2 DUP3 AND PUSH1 0x0 SWAP1 DUP2 MSTORE PUSH1 0x1 PUSH1 0x20 SWAP1 DUP2 MSTORE PUSH1 0x40 DUP1 DUP4 KECCAK256 SWAP4 SWAP1 SWAP5 AND DUP3 MSTORE SWAP2 SWAP1 SWAP2 MSTORE KECCAK256 SLOAD SWAP1 JUMP JUMPDEST PUSH2 0x50F PUSH2 0x50A CALLDATASIZE PUSH1 0x4 PUSH2 0x2241 JUMP JUMPDEST PUSH2 0xBE9 JUMP JUMPDEST PUSH1 0x40 DUP1 MLOAD DUP3 MLOAD PUSH6 0xFFFFFFFFFFFF AND DUP2 MSTORE PUSH1 0x20 SWAP3 DUP4 ADD MLOAD PUSH1 0x1 PUSH1 0x1 PUSH1 0xD0 SHL SUB AND SWAP3 DUP2 ADD SWAP3 SWAP1 SWAP3 MSTORE ADD PUSH2 0x22B JUMP JUMPDEST PUSH2 0x2D5 PUSH2 0x549 CALLDATASIZE PUSH1 0x4 PUSH2 0x2087 JUMP JUMPDEST PUSH2 0xC0E JUMP JUMPDEST PUSH1 0x60 PUSH1 0x3 DUP1 SLOAD PUSH2 0x55D SWAP1 PUSH2 0x2281 JUMP JUMPDEST DUP1 PUSH1 0x1F ADD PUSH1 0x20 DUP1 SWAP2 DIV MUL PUSH1 0x20 ADD PUSH1 0x40 MLOAD SWAP1 DUP2 ADD PUSH1 0x40 MSTORE DUP1 SWAP3 SWAP2 SWAP1 DUP2 DUP2 MSTORE PUSH1 0x20 ADD DUP3 DUP1 SLOAD PUSH2 0x589 SWAP1 PUSH2 0x2281 JUMP JUMPDEST DUP1 ISZERO PUSH2 0x5D6 JUMPI DUP1 PUSH1 0x1F LT PUSH2 0x5AB JUMPI PUSH2 0x100 DUP1 DUP4 SLOAD DIV MUL DUP4 MSTORE SWAP2 PUSH1 0x20 ADD SWAP2 PUSH2 0x5D6 JUMP JUMPDEST DUP3 ADD SWAP2 SWAP1 PUSH1 0x0 MSTORE PUSH1 0x20 PUSH1 0x0 KECCAK256 SWAP1 JUMPDEST DUP2 SLOAD DUP2 MSTORE SWAP1 PUSH1 0x1 ADD SWAP1 PUSH1 0x20 ADD DUP1 DUP4 GT PUSH2 0x5B9 JUMPI DUP3 SWAP1 SUB PUSH1 0x1F AND DUP3 ADD SWAP2 JUMPDEST POP POP POP POP POP SWAP1 POP SWAP1 JUMP JUMPDEST PUSH1 0x0 CALLER PUSH2 0x5EE DUP2 DUP6 DUP6 PUSH2 0xC61 JUMP JUMPDEST PUSH1 0x1 SWAP2 POP POP JUMPDEST SWAP3 SWAP2 POP POP JUMP JUMPDEST PUSH1 0x0 CALLER PUSH2 0x608 DUP6 DUP3 DUP6 PUSH2 0xC73 JUMP JUMPDEST PUSH2 0x613 DUP6 DUP6 DUP6 PUSH2 0xCF1 JUMP JUMPDEST POP PUSH1 0x1 SWAP5 SWAP4 POP POP POP POP JUMP JUMPDEST PUSH1 0x0 PUSH2 0x628 PUSH2 0xD50 JUMP JUMPDEST SWAP1 POP SWAP1 JUMP JUMPDEST PUSH1 0x0 DUP1 PUSH2 0x638 PUSH2 0x99B JUMP JUMPDEST SWAP1 POP DUP1 PUSH6 0xFFFFFFFFFFFF AND DUP4 LT PUSH2 0x678 JUMPI PUSH1 0x40 MLOAD PUSH4 0x7669FC0F PUSH1 0xE1 SHL DUP2 MSTORE PUSH1 0x4 DUP2 ADD DUP5 SWAP1 MSTORE PUSH6 0xFFFFFFFFFFFF DUP3 AND PUSH1 0x24 DUP3 ADD MSTORE PUSH1 0x44 ADD JUMPDEST PUSH1 0x40 MLOAD DUP1 SWAP2 SUB SWAP1 REVERT JUMPDEST PUSH2 0x6A2 PUSH2 0x684 DUP5 PUSH2 0xE7B JUMP JUMPDEST PUSH1 0x1 PUSH1 0x1 PUSH1 0xA0 SHL SUB DUP7 AND PUSH1 0x0 SWAP1 DUP2 MSTORE PUSH1 0xA PUSH1 0x20 MSTORE PUSH1 0x40 SWAP1 KECCAK256 SWAP1 PUSH2 0xEB2 JUMP JUMPDEST PUSH1 0x1 PUSH1 0x1 PUSH1 0xD0 SHL SUB AND SWAP5 SWAP4 POP POP POP POP JUMP JUMPDEST PUSH2 0x6BB PUSH2 0xF68 JUMP JUMPDEST PUSH2 0x6C3 PUSH2 0xF95 JUMP JUMPDEST PUSH2 0x6CB PUSH2 0xFBF JUMP JUMPDEST PUSH2 0x6D5 PUSH1 0x1 PUSH1 0xC SSTORE JUMP JUMPDEST JUMP JUMPDEST PUSH2 0x6DF PUSH2 0xF68 JUMP JUMPDEST PUSH2 0x6E7 PUSH2 0xF95 JUMP JUMPDEST PUSH32 0x0 DUP2 PUSH2 0x712 PUSH1 0x2 SLOAD SWAP1 JUMP JUMPDEST PUSH2 0x71C SWAP2 SWAP1 PUSH2 0x22D1 JUMP JUMPDEST GT ISZERO PUSH2 0x776 JUMPI PUSH1 0x40 MLOAD PUSH3 0x461BCD PUSH1 0xE5 SHL DUP2 MSTORE PUSH1 0x20 PUSH1 0x4 DUP3 ADD MSTORE PUSH1 0x24 DUP1 DUP3 ADD MSTORE PUSH32 0x45524332303A2043616E6E6F74206D696E74206265796F6E64206D6178207375 PUSH1 0x44 DUP3 ADD MSTORE PUSH4 0x70706C79 PUSH1 0xE0 SHL PUSH1 0x64 DUP3 ADD MSTORE PUSH1 0x84 ADD PUSH2 0x66F JUMP JUMPDEST PUSH2 0x780 DUP3 DUP3 PUSH2 0x1014 JUMP JUMPDEST PUSH2 0x78A PUSH1 0x1 PUSH1 0xC SSTORE JUMP JUMPDEST POP POP JUMP JUMPDEST PUSH2 0x796 PUSH2 0xF95 JUMP JUMPDEST PUSH2 0x7A0 CALLER DUP3 PUSH2 0x104A JUMP JUMPDEST PUSH2 0x7AA PUSH1 0x1 PUSH1 0xC SSTORE JUMP JUMPDEST POP JUMP JUMPDEST PUSH1 0x60 PUSH2 0x7B7 PUSH2 0x1080 JUMP JUMPDEST PUSH6 0xFFFFFFFFFFFF AND PUSH2 0x7C7 PUSH2 0x99B JUMP JUMPDEST PUSH6 0xFFFFFFFFFFFF AND EQ PUSH2 0x7ED JUMPI PUSH1 0x40 MLOAD PUSH4 0x1BFC1C5 PUSH1 0xE6 SHL DUP2 MSTORE PUSH1 0x4 ADD PUSH1 0x40 MLOAD DUP1 SWAP2 SUB SWAP1 REVERT JUMPDEST POP PUSH1 0x40 DUP1 MLOAD DUP1 DUP3 ADD SWAP1 SWAP2 MSTORE PUSH1 0x1D DUP2 MSTORE PUSH32 0x6D6F64653D626C6F636B6E756D6265722666726F6D3D64656661756C74000000 PUSH1 0x20 DUP3 ADD MSTORE SWAP1 JUMP JUMPDEST CALLER PUSH2 0x78A DUP2 DUP4 PUSH2 0x108B JUMP JUMPDEST PUSH1 0x0 PUSH2 0x5F4 DUP3 PUSH2 0x10FD JUMP JUMPDEST PUSH2 0x843 PUSH2 0xF68 JUMP JUMPDEST PUSH2 0x6D5 PUSH1 0x0 PUSH2 0x111F JUMP JUMPDEST PUSH2 0x858 DUP3 CALLER DUP4 PUSH2 0xC73 JUMP JUMPDEST PUSH2 0x78A DUP3 DUP3 PUSH2 0x104A JUMP JUMPDEST PUSH1 0x0 PUSH2 0x5F4 DUP3 PUSH2 0x1171 JUMP JUMPDEST PUSH2 0x875 PUSH2 0xF68 JUMP JUMPDEST PUSH2 0x87D PUSH2 0xF95 JUMP JUMPDEST PUSH2 0x6CB PUSH2 0x118F JUMP JUMPDEST PUSH1 0x0 PUSH1 0x60 DUP1 PUSH1 0x0 DUP1 PUSH1 0x0 PUSH1 0x60 PUSH2 0x899 PUSH2 0x11D2 JUMP JUMPDEST PUSH2 0x8A1 PUSH2 0x11FF JUMP JUMPDEST PUSH1 0x40 DUP1 MLOAD PUSH1 0x0 DUP1 DUP3 MSTORE PUSH1 0x20 DUP3 ADD SWAP1 SWAP3 MSTORE PUSH1 0xF PUSH1 0xF8 SHL SWAP12 SWAP4 SWAP11 POP SWAP2 SWAP9 POP CHAINID SWAP8 POP ADDRESS SWAP7 POP SWAP5 POP SWAP3 POP SWAP1 POP JUMP JUMPDEST PUSH1 0x0 DUP1 PUSH2 0x8D6 PUSH2 0x99B JUMP JUMPDEST SWAP1 POP DUP1 PUSH6 0xFFFFFFFFFFFF AND DUP4 LT PUSH2 0x911 JUMPI PUSH1 0x40 MLOAD PUSH4 0x7669FC0F PUSH1 0xE1 SHL DUP2 MSTORE PUSH1 0x4 DUP2 ADD DUP5 SWAP1 MSTORE PUSH6 0xFFFFFFFFFFFF DUP3 AND PUSH1 0x24 DUP3 ADD MSTORE PUSH1 0x44 ADD PUSH2 0x66F JUMP JUMPDEST PUSH2 0x925 PUSH2 0x91D DUP5 PUSH2 0xE7B JUMP JUMPDEST PUSH1 0xB SWAP1 PUSH2 0xEB2 JUMP JUMPDEST PUSH1 0x1 PUSH1 0x1 PUSH1 0xD0 SHL SUB AND SWAP4 SWAP3 POP POP POP JUMP JUMPDEST PUSH2 0x93D PUSH2 0xF68 JUMP JUMPDEST PUSH2 0x945 PUSH2 0xF95 JUMP JUMPDEST PUSH1 0xA DUP2 GT ISZERO PUSH2 0x98C JUMPI PUSH1 0x40 MLOAD PUSH3 0x461BCD PUSH1 0xE5 SHL DUP2 MSTORE PUSH1 0x20 PUSH1 0x4 DUP3 ADD MSTORE PUSH1 0x13 PUSH1 0x24 DUP3 ADD MSTORE PUSH19 0x8AA486646074408CCACA40E8DEDE40D0D2CED PUSH1 0x6B SHL PUSH1 0x44 DUP3 ADD MSTORE PUSH1 0x64 ADD PUSH2 0x66F JUMP JUMPDEST PUSH1 0xD DUP2 SWAP1 SSTORE PUSH2 0x7AA PUSH1 0x1 PUSH1 0xC SSTORE JUMP JUMPDEST PUSH1 0x0 PUSH2 0x628 PUSH2 0x1080 JUMP JUMPDEST PUSH1 0x60 PUSH1 0x4 DUP1 SLOAD PUSH2 0x55D SWAP1 PUSH2 0x2281 JUMP JUMPDEST PUSH1 0x1 PUSH1 0x1 PUSH1 0xA0 SHL SUB DUP2 AND PUSH1 0x0 SWAP1 DUP2 MSTORE PUSH1 0xA PUSH1 0x20 MSTORE PUSH1 0x40 DUP2 KECCAK256 PUSH2 0x9D5 SWAP1 PUSH2 0x122C JUMP JUMPDEST PUSH1 0x1 PUSH1 0x1 PUSH1 0xD0 SHL SUB AND SWAP3 SWAP2 POP POP JUMP JUMPDEST PUSH1 0x0 CALLER PUSH2 0x5EE DUP2 DUP6 DUP6 PUSH2 0xCF1 JUMP JUMPDEST DUP4 TIMESTAMP GT ISZERO PUSH2 0xA16 JUMPI PUSH1 0x40 MLOAD PUSH4 0x2341D787 PUSH1 0xE1 SHL DUP2 MSTORE PUSH1 0x4 DUP2 ADD DUP6 SWAP1 MSTORE PUSH1 0x24 ADD PUSH2 0x66F JUMP JUMPDEST PUSH1 0x40 DUP1 MLOAD PUSH32 0xE48329057BFD03D55E49B547132E39CFFD9C1820AD7B9D4C5307691425D15ADF PUSH1 0x20 DUP3 ADD MSTORE PUSH1 0x1 PUSH1 0x1 PUSH1 0xA0 SHL SUB DUP9 AND SWAP2 DUP2 ADD SWAP2 SWAP1 SWAP2 MSTORE PUSH1 0x60 DUP2 ADD DUP7 SWAP1 MSTORE PUSH1 0x80 DUP2 ADD DUP6 SWAP1 MSTORE PUSH1 0x0 SWAP1 PUSH2 0xA90 SWAP1 PUSH2 0xA88 SWAP1 PUSH1 0xA0 ADD PUSH1 0x40 MLOAD PUSH1 0x20 DUP2 DUP4 SUB SUB DUP2 MSTORE SWAP1 PUSH1 0x40 MSTORE DUP1 MLOAD SWAP1 PUSH1 0x20 ADD KECCAK256 PUSH2 0x1265 JUMP JUMPDEST DUP6 DUP6 DUP6 PUSH2 0x1292 JUMP JUMPDEST SWAP1 POP PUSH2 0xA9C DUP2 DUP8 PUSH2 0x12C0 JUMP JUMPDEST PUSH2 0xAA6 DUP2 DUP9 PUSH2 0x108B JUMP JUMPDEST POP POP POP POP POP POP POP JUMP JUMPDEST DUP4 TIMESTAMP GT ISZERO PUSH2 0xAD3 JUMPI PUSH1 0x40 MLOAD PUSH4 0x313C8981 PUSH1 0xE1 SHL DUP2 MSTORE PUSH1 0x4 DUP2 ADD DUP6 SWAP1 MSTORE PUSH1 0x24 ADD PUSH2 0x66F JUMP JUMPDEST PUSH1 0x0 PUSH32 0x6E71EDAE12B1B97F4D1F60370FEF10105FA2FAAE0126114A169C64845D6126C9 DUP9 DUP9 DUP9 PUSH2 0xB20 DUP13 PUSH1 0x1 PUSH1 0x1 PUSH1 0xA0 SHL SUB AND PUSH1 0x0 SWAP1 DUP2 MSTORE PUSH1 0x8 PUSH1 0x20 MSTORE PUSH1 0x40 SWAP1 KECCAK256 DUP1 SLOAD PUSH1 0x1 DUP2 ADD SWAP1 SWAP2 SSTORE SWAP1 JUMP JUMPDEST PUSH1 0x40 DUP1 MLOAD PUSH1 0x20 DUP2 ADD SWAP7 SWAP1 SWAP7 MSTORE PUSH1 0x1 PUSH1 0x1 PUSH1 0xA0 SHL SUB SWAP5 DUP6 AND SWAP1 DUP7 ADD MSTORE SWAP3 SWAP1 SWAP2 AND PUSH1 0x60 DUP5 ADD MSTORE PUSH1 0x80 DUP4 ADD MSTORE PUSH1 0xA0 DUP3 ADD MSTORE PUSH1 0xC0 DUP2 ADD DUP7 SWAP1 MSTORE PUSH1 0xE0 ADD PUSH1 0x40 MLOAD PUSH1 0x20 DUP2 DUP4 SUB SUB DUP2 MSTORE SWAP1 PUSH1 0x40 MSTORE DUP1 MLOAD SWAP1 PUSH1 0x20 ADD KECCAK256 SWAP1 POP PUSH1 0x0 PUSH2 0xB7B DUP3 PUSH2 0x1265 JUMP JUMPDEST SWAP1 POP PUSH1 0x0 PUSH2 0xB8B DUP3 DUP8 DUP8 DUP8 PUSH2 0x1292 JUMP JUMPDEST SWAP1 POP DUP10 PUSH1 0x1 PUSH1 0x1 PUSH1 0xA0 SHL SUB AND DUP2 PUSH1 0x1 PUSH1 0x1 PUSH1 0xA0 SHL SUB AND EQ PUSH2 0xBD2 JUMPI PUSH1 0x40 MLOAD PUSH4 0x25C00723 PUSH1 0xE1 SHL DUP2 MSTORE PUSH1 0x1 PUSH1 0x1 PUSH1 0xA0 SHL SUB DUP1 DUP4 AND PUSH1 0x4 DUP4 ADD MSTORE DUP12 AND PUSH1 0x24 DUP3 ADD MSTORE PUSH1 0x44 ADD PUSH2 0x66F JUMP JUMPDEST PUSH2 0xBDD DUP11 DUP11 DUP11 PUSH2 0xC61 JUMP JUMPDEST POP POP POP POP POP POP POP POP POP POP JUMP JUMPDEST PUSH1 0x40 DUP1 MLOAD DUP1 DUP3 ADD SWAP1 SWAP2 MSTORE PUSH1 0x0 DUP1 DUP3 MSTORE PUSH1 0x20 DUP3 ADD MSTORE PUSH2 0xC07 DUP4 DUP4 PUSH2 0x1313 JUMP JUMPDEST SWAP4 SWAP3 POP POP POP JUMP JUMPDEST PUSH2 0xC16 PUSH2 0xF68 JUMP JUMPDEST PUSH1 0x1 PUSH1 0x1 PUSH1 0xA0 SHL SUB DUP2 AND PUSH2 0xC40 JUMPI PUSH1 0x40 MLOAD PUSH4 0x1E4FBDF7 PUSH1 0xE0 SHL DUP2 MSTORE PUSH1 0x0 PUSH1 0x4 DUP3 ADD MSTORE PUSH1 0x24 ADD PUSH2 0x66F JUMP JUMPDEST PUSH2 0x7AA DUP2 PUSH2 0x111F JUMP JUMPDEST PUSH1 0x0 PUSH2 0xC07 DUP3 DUP5 PUSH2 0x22E4 JUMP JUMPDEST PUSH1 0x0 PUSH2 0xC07 DUP3 DUP5 PUSH2 0x2303 JUMP JUMPDEST PUSH2 0xC6E DUP4 DUP4 DUP4 PUSH1 0x1 PUSH2 0x1349 JUMP JUMPDEST POP POP POP JUMP JUMPDEST PUSH1 0x1 PUSH1 0x1 PUSH1 0xA0 SHL SUB DUP4 DUP2 AND PUSH1 0x0 SWAP1 DUP2 MSTORE PUSH1 0x1 PUSH1 0x20 SWAP1 DUP2 MSTORE PUSH1 0x40 DUP1 DUP4 KECCAK256 SWAP4 DUP7 AND DUP4 MSTORE SWAP3 SWAP1 MSTORE KECCAK256 SLOAD PUSH1 0x0 NOT DUP2 EQ PUSH2 0xCEB JUMPI DUP2 DUP2 LT ISZERO PUSH2 0xCDC JUMPI PUSH1 0x40 MLOAD PUSH4 0x7DC7A0D9 PUSH1 0xE1 SHL DUP2 MSTORE PUSH1 0x1 PUSH1 0x1 PUSH1 0xA0 SHL SUB DUP5 AND PUSH1 0x4 DUP3 ADD MSTORE PUSH1 0x24 DUP2 ADD DUP3 SWAP1 MSTORE PUSH1 0x44 DUP2 ADD DUP4 SWAP1 MSTORE PUSH1 0x64 ADD PUSH2 0x66F JUMP JUMPDEST PUSH2 0xCEB DUP5 DUP5 DUP5 DUP5 SUB PUSH1 0x0 PUSH2 0x1349 JUMP JUMPDEST POP POP POP POP JUMP JUMPDEST PUSH1 0x1 PUSH1 0x1 PUSH1 0xA0 SHL SUB DUP4 AND PUSH2 0xD1B JUMPI PUSH1 0x40 MLOAD PUSH4 0x4B637E8F PUSH1 0xE1 SHL DUP2 MSTORE PUSH1 0x0 PUSH1 0x4 DUP3 ADD MSTORE PUSH1 0x24 ADD PUSH2 0x66F JUMP JUMPDEST PUSH1 0x1 PUSH1 0x1 PUSH1 0xA0 SHL SUB DUP3 AND PUSH2 0xD45 JUMPI PUSH1 0x40 MLOAD PUSH4 0xEC442F05 PUSH1 0xE0 SHL DUP2 MSTORE PUSH1 0x0 PUSH1 0x4 DUP3 ADD MSTORE PUSH1 0x24 ADD PUSH2 0x66F JUMP JUMPDEST PUSH2 0xC6E DUP4 DUP4 DUP4 PUSH2 0x141E JUMP JUMPDEST PUSH1 0x0 ADDRESS PUSH1 0x1 PUSH1 0x1 PUSH1 0xA0 SHL SUB PUSH32 0x0 AND EQ DUP1 ISZERO PUSH2 0xDA9 JUMPI POP PUSH32 0x0 CHAINID EQ JUMPDEST ISZERO PUSH2 0xDD3 JUMPI POP PUSH32 0x0 SWAP1 JUMP JUMPDEST PUSH2 0x628 PUSH1 0x40 DUP1 MLOAD PUSH32 0x8B73C3C69BB8FE3D512ECC4CF759CC79239F7B179B0FFACAA9A75D522B39400F PUSH1 0x20 DUP3 ADD MSTORE PUSH32 0x0 SWAP2 DUP2 ADD SWAP2 SWAP1 SWAP2 MSTORE PUSH32 0x0 PUSH1 0x60 DUP3 ADD MSTORE CHAINID PUSH1 0x80 DUP3 ADD MSTORE ADDRESS PUSH1 0xA0 DUP3 ADD MSTORE PUSH1 0x0 SWAP1 PUSH1 0xC0 ADD PUSH1 0x40 MLOAD PUSH1 0x20 DUP2 DUP4 SUB SUB DUP2 MSTORE SWAP1 PUSH1 0x40 MSTORE DUP1 MLOAD SWAP1 PUSH1 0x20 ADD KECCAK256 SWAP1 POP SWAP1 JUMP JUMPDEST PUSH1 0x0 PUSH6 0xFFFFFFFFFFFF DUP3 GT ISZERO PUSH2 0xEAE JUMPI PUSH1 0x40 MLOAD PUSH4 0x6DFCC65 PUSH1 0xE4 SHL DUP2 MSTORE PUSH1 0x30 PUSH1 0x4 DUP3 ADD MSTORE PUSH1 0x24 DUP2 ADD DUP4 SWAP1 MSTORE PUSH1 0x44 ADD PUSH2 0x66F JUMP JUMPDEST POP SWAP1 JUMP JUMPDEST DUP2 SLOAD PUSH1 0x0 SWAP1 DUP2 DUP2 PUSH1 0x5 DUP2 GT ISZERO PUSH2 0xF11 JUMPI PUSH1 0x0 PUSH2 0xECD DUP5 PUSH2 0x14B9 JUMP JUMPDEST PUSH2 0xED7 SWAP1 DUP6 PUSH2 0x2322 JUMP JUMPDEST PUSH1 0x0 DUP9 DUP2 MSTORE PUSH1 0x20 SWAP1 KECCAK256 SWAP1 SWAP2 POP DUP2 ADD SLOAD PUSH6 0xFFFFFFFFFFFF SWAP1 DUP2 AND SWAP1 DUP8 AND LT ISZERO PUSH2 0xF01 JUMPI DUP1 SWAP2 POP PUSH2 0xF0F JUMP JUMPDEST PUSH2 0xF0C DUP2 PUSH1 0x1 PUSH2 0x22D1 JUMP JUMPDEST SWAP3 POP JUMPDEST POP JUMPDEST PUSH1 0x0 PUSH2 0xF1F DUP8 DUP8 DUP6 DUP6 PUSH2 0x1612 JUMP JUMPDEST SWAP1 POP DUP1 ISZERO PUSH2 0xF5A JUMPI PUSH2 0xF44 DUP8 PUSH2 0xF36 PUSH1 0x1 DUP5 PUSH2 0x2322 JUMP JUMPDEST PUSH1 0x0 SWAP2 DUP3 MSTORE PUSH1 0x20 SWAP1 SWAP2 KECCAK256 ADD SWAP1 JUMP JUMPDEST SLOAD PUSH1 0x1 PUSH1 0x30 SHL SWAP1 DIV PUSH1 0x1 PUSH1 0x1 PUSH1 0xD0 SHL SUB AND PUSH2 0xF5D JUMP JUMPDEST PUSH1 0x0 JUMPDEST SWAP8 SWAP7 POP POP POP POP POP POP POP JUMP JUMPDEST PUSH1 0x5 SLOAD PUSH1 0x1 PUSH1 0x1 PUSH1 0xA0 SHL SUB AND CALLER EQ PUSH2 0x6D5 JUMPI PUSH1 0x40 MLOAD PUSH4 0x118CDAA7 PUSH1 0xE0 SHL DUP2 MSTORE CALLER PUSH1 0x4 DUP3 ADD MSTORE PUSH1 0x24 ADD PUSH2 0x66F JUMP JUMPDEST PUSH1 0x2 PUSH1 0xC SLOAD SUB PUSH2 0xFB8 JUMPI PUSH1 0x40 MLOAD PUSH4 0x3EE5AEB5 PUSH1 0xE0 SHL DUP2 MSTORE PUSH1 0x4 ADD PUSH1 0x40 MLOAD DUP1 SWAP2 SUB SWAP1 REVERT JUMPDEST PUSH1 0x2 PUSH1 0xC SSTORE JUMP JUMPDEST PUSH2 0xFC7 PUSH2 0x1674 JUMP JUMPDEST PUSH1 0x5 DUP1 SLOAD PUSH1 0xFF PUSH1 0xA0 SHL NOT AND SWAP1 SSTORE PUSH32 0x5DB9EE0A495BF2E6FF9C91A7834C1BA4FDD244A5E8AA4E537BD38AEAE4B073AA CALLER JUMPDEST PUSH1 0x40 MLOAD PUSH1 0x1 PUSH1 0x1 PUSH1 0xA0 SHL SUB SWAP1 SWAP2 AND DUP2 MSTORE PUSH1 0x20 ADD PUSH1 0x40 MLOAD DUP1 SWAP2 SUB SWAP1 LOG1 JUMP JUMPDEST PUSH1 0x1 PUSH1 0x1 PUSH1 0xA0 SHL SUB DUP3 AND PUSH2 0x103E JUMPI PUSH1 0x40 MLOAD PUSH4 0xEC442F05 PUSH1 0xE0 SHL DUP2 MSTORE PUSH1 0x0 PUSH1 0x4 DUP3 ADD MSTORE PUSH1 0x24 ADD PUSH2 0x66F JUMP JUMPDEST PUSH2 0x78A PUSH1 0x0 DUP4 DUP4 PUSH2 0x141E JUMP JUMPDEST PUSH1 0x1 PUSH1 0x1 PUSH1 0xA0 SHL SUB DUP3 AND PUSH2 0x1074 JUMPI PUSH1 0x40 MLOAD PUSH4 0x4B637E8F PUSH1 0xE1 SHL DUP2 MSTORE PUSH1 0x0 PUSH1 0x4 DUP3 ADD MSTORE PUSH1 0x24 ADD PUSH2 0x66F JUMP JUMPDEST PUSH2 0x78A DUP3 PUSH1 0x0 DUP4 PUSH2 0x141E JUMP JUMPDEST PUSH1 0x0 PUSH2 0x628 NUMBER PUSH2 0xE7B JUMP JUMPDEST PUSH1 0x1 PUSH1 0x1 PUSH1 0xA0 SHL SUB DUP3 DUP2 AND PUSH1 0x0 DUP2 DUP2 MSTORE PUSH1 0x9 PUSH1 0x20 MSTORE PUSH1 0x40 DUP1 DUP3 KECCAK256 DUP1 SLOAD DUP7 DUP7 AND PUSH1 0x1 PUSH1 0x1 PUSH1 0xA0 SHL SUB NOT DUP3 AND DUP2 OR SWAP1 SWAP3 SSTORE SWAP2 MLOAD SWAP2 SWAP1 SWAP5 AND SWAP4 SWAP3 DUP5 SWAP3 SWAP1 SWAP2 PUSH32 0x3134E8A2E6D97E929A7E54011EA5485D7D196DD5F0BA4D4EF95803E8E3FC257F SWAP2 SWAP1 LOG4 PUSH2 0xC6E DUP2 DUP4 PUSH2 0x10F8 DUP7 PUSH2 0x169E JUMP JUMPDEST PUSH2 0x16BC JUMP JUMPDEST PUSH1 0x1 PUSH1 0x1 PUSH1 0xA0 SHL SUB DUP2 AND PUSH1 0x0 SWAP1 DUP2 MSTORE PUSH1 0xA PUSH1 0x20 MSTORE PUSH1 0x40 DUP2 KECCAK256 SLOAD PUSH2 0x5F4 SWAP1 PUSH2 0x1828 JUMP JUMPDEST PUSH1 0x5 DUP1 SLOAD PUSH1 0x1 PUSH1 0x1 PUSH1 0xA0 SHL SUB DUP4 DUP2 AND PUSH1 0x1 PUSH1 0x1 PUSH1 0xA0 SHL SUB NOT DUP4 AND DUP2 OR SWAP1 SWAP4 SSTORE PUSH1 0x40 MLOAD SWAP2 AND SWAP2 SWAP1 DUP3 SWAP1 PUSH32 0x8BE0079C531659141344CD1FD0A4F28419497F9722A3DAAFE3B4186F6B6457E0 SWAP1 PUSH1 0x0 SWAP1 LOG3 POP POP JUMP JUMPDEST PUSH1 0x1 PUSH1 0x1 PUSH1 0xA0 SHL SUB DUP2 AND PUSH1 0x0 SWAP1 DUP2 MSTORE PUSH1 0x8 PUSH1 0x20 MSTORE PUSH1 0x40 DUP2 KECCAK256 SLOAD PUSH2 0x5F4 JUMP JUMPDEST PUSH2 0x1197 PUSH2 0x1859 JUMP JUMPDEST PUSH1 0x5 DUP1 SLOAD PUSH1 0xFF PUSH1 0xA0 SHL NOT AND PUSH1 0x1 PUSH1 0xA0 SHL OR SWAP1 SSTORE PUSH32 0x62E78CEA01BEE320CD4E420270B5EA74000D11B0C9F74754EBDBFC544B05A258 PUSH2 0xFF7 CALLER SWAP1 JUMP JUMPDEST PUSH1 0x60 PUSH2 0x628 PUSH32 0x0 PUSH1 0x6 PUSH2 0x1884 JUMP JUMPDEST PUSH1 0x60 PUSH2 0x628 PUSH32 0x0 PUSH1 0x7 PUSH2 0x1884 JUMP JUMPDEST DUP1 SLOAD PUSH1 0x0 SWAP1 DUP1 ISZERO PUSH2 0x125C JUMPI PUSH2 0x1246 DUP4 PUSH2 0xF36 PUSH1 0x1 DUP5 PUSH2 0x2322 JUMP JUMPDEST SLOAD PUSH1 0x1 PUSH1 0x30 SHL SWAP1 DIV PUSH1 0x1 PUSH1 0x1 PUSH1 0xD0 SHL SUB AND PUSH2 0xC07 JUMP JUMPDEST PUSH1 0x0 SWAP4 SWAP3 POP POP POP JUMP JUMPDEST PUSH1 0x0 PUSH2 0x5F4 PUSH2 0x1272 PUSH2 0xD50 JUMP JUMPDEST DUP4 PUSH1 0x40 MLOAD PUSH2 0x1901 PUSH1 0xF0 SHL DUP2 MSTORE PUSH1 0x2 DUP2 ADD SWAP3 SWAP1 SWAP3 MSTORE PUSH1 0x22 DUP3 ADD MSTORE PUSH1 0x42 SWAP1 KECCAK256 SWAP1 JUMP JUMPDEST PUSH1 0x0 DUP1 PUSH1 0x0 DUP1 PUSH2 0x12A4 DUP9 DUP9 DUP9 DUP9 PUSH2 0x192F JUMP JUMPDEST SWAP3 POP SWAP3 POP SWAP3 POP PUSH2 0x12B4 DUP3 DUP3 PUSH2 0x19FE JUMP JUMPDEST POP SWAP1 SWAP7 SWAP6 POP POP POP POP POP POP JUMP JUMPDEST PUSH1 0x1 PUSH1 0x1 PUSH1 0xA0 SHL SUB DUP3 AND PUSH1 0x0 SWAP1 DUP2 MSTORE PUSH1 0x8 PUSH1 0x20 MSTORE PUSH1 0x40 SWAP1 KECCAK256 DUP1 SLOAD PUSH1 0x1 DUP2 ADD SWAP1 SWAP2 SSTORE DUP2 DUP2 EQ PUSH2 0xC6E JUMPI PUSH1 0x40 MLOAD PUSH4 0x1D4B623 PUSH1 0xE6 SHL DUP2 MSTORE PUSH1 0x1 PUSH1 0x1 PUSH1 0xA0 SHL SUB DUP5 AND PUSH1 0x4 DUP3 ADD MSTORE PUSH1 0x24 DUP2 ADD DUP3 SWAP1 MSTORE PUSH1 0x44 ADD PUSH2 0x66F JUMP JUMPDEST PUSH1 0x40 DUP1 MLOAD DUP1 DUP3 ADD SWAP1 SWAP2 MSTORE PUSH1 0x0 DUP1 DUP3 MSTORE PUSH1 0x20 DUP3 ADD MSTORE PUSH1 0x1 PUSH1 0x1 PUSH1 0xA0 SHL SUB DUP4 AND PUSH1 0x0 SWAP1 DUP2 MSTORE PUSH1 0xA PUSH1 0x20 MSTORE PUSH1 0x40 SWAP1 KECCAK256 PUSH2 0xC07 SWAP1 DUP4 PUSH2 0x1AB7 JUMP JUMPDEST PUSH1 0x1 PUSH1 0x1 PUSH1 0xA0 SHL SUB DUP5 AND PUSH2 0x1373 JUMPI PUSH1 0x40 MLOAD PUSH4 0xE602DF05 PUSH1 0xE0 SHL DUP2 MSTORE PUSH1 0x0 PUSH1 0x4 DUP3 ADD MSTORE PUSH1 0x24 ADD PUSH2 0x66F JUMP JUMPDEST PUSH1 0x1 PUSH1 0x1 PUSH1 0xA0 SHL SUB DUP4 AND PUSH2 0x139D JUMPI PUSH1 0x40 MLOAD PUSH4 0x4A1406B1 PUSH1 0xE1 SHL DUP2 MSTORE PUSH1 0x0 PUSH1 0x4 DUP3 ADD MSTORE PUSH1 0x24 ADD PUSH2 0x66F JUMP JUMPDEST PUSH1 0x1 PUSH1 0x1 PUSH1 0xA0 SHL SUB DUP1 DUP6 AND PUSH1 0x0 SWAP1 DUP2 MSTORE PUSH1 0x1 PUSH1 0x20 SWAP1 DUP2 MSTORE PUSH1 0x40 DUP1 DUP4 KECCAK256 SWAP4 DUP8 AND DUP4 MSTORE SWAP3 SWAP1 MSTORE KECCAK256 DUP3 SWAP1 SSTORE DUP1 ISZERO PUSH2 0xCEB JUMPI DUP3 PUSH1 0x1 PUSH1 0x1 PUSH1 0xA0 SHL SUB AND DUP5 PUSH1 0x1 PUSH1 0x1 PUSH1 0xA0 SHL SUB AND PUSH32 0x8C5BE1E5EBEC7D5BD14F71427D1E84F3DD0314C0F7B2291E5B200AC8C7C3B925 DUP5 PUSH1 0x40 MLOAD PUSH2 0x1410 SWAP2 DUP2 MSTORE PUSH1 0x20 ADD SWAP1 JUMP JUMPDEST PUSH1 0x40 MLOAD DUP1 SWAP2 SUB SWAP1 LOG3 POP POP POP POP JUMP JUMPDEST PUSH1 0x0 PUSH1 0x64 PUSH1 0xD SLOAD DUP4 PUSH2 0x1430 SWAP2 SWAP1 PUSH2 0x2335 JUMP JUMPDEST PUSH2 0x143A SWAP2 SWAP1 PUSH2 0x2362 JUMP JUMPDEST SWAP1 POP PUSH1 0x0 PUSH2 0x1448 DUP3 DUP5 PUSH2 0x2322 JUMP JUMPDEST SWAP1 POP PUSH1 0x1 PUSH1 0x1 PUSH1 0xA0 SHL SUB DUP6 AND ISZERO DUP1 ISZERO SWAP1 PUSH2 0x146A JUMPI POP PUSH1 0x1 PUSH1 0x1 PUSH1 0xA0 SHL SUB DUP5 AND ISZERO ISZERO JUMPDEST DUP1 ISZERO PUSH2 0x1476 JUMPI POP PUSH1 0x0 DUP3 GT JUMPDEST ISZERO PUSH2 0x14A7 JUMPI PUSH2 0x1497 DUP6 PUSH2 0x1491 PUSH1 0x5 SLOAD PUSH1 0x1 PUSH1 0x1 PUSH1 0xA0 SHL SUB AND SWAP1 JUMP JUMPDEST DUP5 PUSH2 0x1B27 JUMP JUMPDEST PUSH2 0x14A2 DUP6 DUP6 DUP4 PUSH2 0x1B27 JUMP JUMPDEST PUSH2 0x14B2 JUMP JUMPDEST PUSH2 0x14B2 DUP6 DUP6 DUP6 PUSH2 0x1B27 JUMP JUMPDEST POP POP POP POP POP JUMP JUMPDEST PUSH1 0x0 PUSH1 0x1 DUP3 GT PUSH2 0x14C7 JUMPI POP SWAP1 JUMP JUMPDEST DUP2 PUSH1 0x1 PUSH1 0x1 PUSH1 0x80 SHL DUP3 LT PUSH2 0x14E0 JUMPI PUSH1 0x80 SWAP2 SWAP1 SWAP2 SHR SWAP1 PUSH1 0x40 SHL JUMPDEST PUSH9 0x10000000000000000 DUP3 LT PUSH2 0x14FB JUMPI PUSH1 0x40 SWAP2 SWAP1 SWAP2 SHR SWAP1 PUSH1 0x20 SHL JUMPDEST PUSH5 0x100000000 DUP3 LT PUSH2 0x1512 JUMPI PUSH1 0x20 SWAP2 SWAP1 SWAP2 SHR SWAP1 PUSH1 0x10 SHL JUMPDEST PUSH3 0x10000 DUP3 LT PUSH2 0x1527 JUMPI PUSH1 0x10 SWAP2 SWAP1 SWAP2 SHR SWAP1 PUSH1 0x8 SHL JUMPDEST PUSH2 0x100 DUP3 LT PUSH2 0x153B JUMPI PUSH1 0x8 SWAP2 SWAP1 SWAP2 SHR SWAP1 PUSH1 0x4 SHL JUMPDEST PUSH1 0x10 DUP3 LT PUSH2 0x154E JUMPI PUSH1 0x4 SWAP2 SWAP1 SWAP2 SHR SWAP1 PUSH1 0x2 SHL JUMPDEST PUSH1 0x4 DUP3 LT PUSH2 0x155A JUMPI PUSH1 0x1 SHL JUMPDEST PUSH1 0x3 MUL PUSH1 0x1 SWAP1 DUP2 SHR SWAP1 DUP2 DUP6 DUP2 PUSH2 0x1572 JUMPI PUSH2 0x1572 PUSH2 0x234C JUMP JUMPDEST DIV DUP3 ADD SWAP1 SHR SWAP1 POP PUSH1 0x1 DUP2 DUP6 DUP2 PUSH2 0x158A JUMPI PUSH2 0x158A PUSH2 0x234C JUMP JUMPDEST DIV DUP3 ADD SWAP1 SHR SWAP1 POP PUSH1 0x1 DUP2 DUP6 DUP2 PUSH2 0x15A2 JUMPI PUSH2 0x15A2 PUSH2 0x234C JUMP JUMPDEST DIV DUP3 ADD SWAP1 SHR SWAP1 POP PUSH1 0x1 DUP2 DUP6 DUP2 PUSH2 0x15BA JUMPI PUSH2 0x15BA PUSH2 0x234C JUMP JUMPDEST DIV DUP3 ADD SWAP1 SHR SWAP1 POP PUSH1 0x1 DUP2 DUP6 DUP2 PUSH2 0x15D2 JUMPI PUSH2 0x15D2 PUSH2 0x234C JUMP JUMPDEST DIV DUP3 ADD SWAP1 SHR SWAP1 POP PUSH1 0x1 DUP2 DUP6 DUP2 PUSH2 0x15EA JUMPI PUSH2 0x15EA PUSH2 0x234C JUMP JUMPDEST DIV DUP3 ADD SWAP1 SHR SWAP1 POP PUSH2 0x1609 DUP2 DUP6 DUP2 PUSH2 0x1603 JUMPI PUSH2 0x1603 PUSH2 0x234C JUMP JUMPDEST DIV DUP3 GT SWAP1 JUMP JUMPDEST SWAP1 SUB SWAP4 SWAP3 POP POP POP JUMP JUMPDEST PUSH1 0x0 JUMPDEST DUP2 DUP4 LT ISZERO PUSH2 0x166C JUMPI PUSH1 0x0 PUSH2 0x1629 DUP5 DUP5 PUSH2 0x1B8E JUMP JUMPDEST PUSH1 0x0 DUP8 DUP2 MSTORE PUSH1 0x20 SWAP1 KECCAK256 SWAP1 SWAP2 POP PUSH6 0xFFFFFFFFFFFF DUP7 AND SWAP1 DUP3 ADD SLOAD PUSH6 0xFFFFFFFFFFFF AND GT ISZERO PUSH2 0x1658 JUMPI DUP1 SWAP3 POP PUSH2 0x1666 JUMP JUMPDEST PUSH2 0x1663 DUP2 PUSH1 0x1 PUSH2 0x22D1 JUMP JUMPDEST SWAP4 POP JUMPDEST POP PUSH2 0x1615 JUMP JUMPDEST POP SWAP4 SWAP3 POP POP POP JUMP JUMPDEST PUSH1 0x5 SLOAD PUSH1 0x1 PUSH1 0xA0 SHL SWAP1 DIV PUSH1 0xFF AND PUSH2 0x6D5 JUMPI PUSH1 0x40 MLOAD PUSH4 0x8DFC202B PUSH1 0xE0 SHL DUP2 MSTORE PUSH1 0x4 ADD PUSH1 0x40 MLOAD DUP1 SWAP2 SUB SWAP1 REVERT JUMPDEST PUSH1 0x1 PUSH1 0x1 PUSH1 0xA0 SHL SUB DUP2 AND PUSH1 0x0 SWAP1 DUP2 MSTORE PUSH1 0x20 DUP2 SWAP1 MSTORE PUSH1 0x40 DUP2 KECCAK256 SLOAD PUSH2 0x5F4 JUMP JUMPDEST DUP2 PUSH1 0x1 PUSH1 0x1 PUSH1 0xA0 SHL SUB AND DUP4 PUSH1 0x1 PUSH1 0x1 PUSH1 0xA0 SHL SUB AND EQ ISZERO DUP1 ISZERO PUSH2 0x16DE JUMPI POP PUSH1 0x0 DUP2 GT JUMPDEST ISZERO PUSH2 0xC6E JUMPI PUSH1 0x1 PUSH1 0x1 PUSH1 0xA0 SHL SUB DUP4 AND ISZERO PUSH2 0x1786 JUMPI PUSH1 0x1 PUSH1 0x1 PUSH1 0xA0 SHL SUB DUP4 AND PUSH1 0x0 SWAP1 DUP2 MSTORE PUSH1 0xA PUSH1 0x20 MSTORE PUSH1 0x40 DUP2 KECCAK256 DUP2 SWAP1 PUSH2 0x1721 SWAP1 PUSH2 0xC55 PUSH2 0x171C DUP7 PUSH2 0x1BA9 JUMP JUMPDEST PUSH2 0x1BDD JUMP JUMPDEST PUSH1 0x1 PUSH1 0x1 PUSH1 0xD0 SHL SUB AND SWAP2 POP PUSH1 0x1 PUSH1 0x1 PUSH1 0xD0 SHL SUB AND SWAP2 POP DUP5 PUSH1 0x1 PUSH1 0x1 PUSH1 0xA0 SHL SUB AND PUSH32 0xDEC2BACDD2F05B59DE34DA9B523DFF8BE42E5E38E818C82FDB0BAE774387A724 DUP4 DUP4 PUSH1 0x40 MLOAD PUSH2 0x177B SWAP3 SWAP2 SWAP1 SWAP2 DUP3 MSTORE PUSH1 0x20 DUP3 ADD MSTORE PUSH1 0x40 ADD SWAP1 JUMP JUMPDEST PUSH1 0x40 MLOAD DUP1 SWAP2 SUB SWAP1 LOG2 POP POP JUMPDEST PUSH1 0x1 PUSH1 0x1 PUSH1 0xA0 SHL SUB DUP3 AND ISZERO PUSH2 0xC6E JUMPI PUSH1 0x1 PUSH1 0x1 PUSH1 0xA0 SHL SUB DUP3 AND PUSH1 0x0 SWAP1 DUP2 MSTORE PUSH1 0xA PUSH1 0x20 MSTORE PUSH1 0x40 DUP2 KECCAK256 DUP2 SWAP1 PUSH2 0x17BF SWAP1 PUSH2 0xC49 PUSH2 0x171C DUP7 PUSH2 0x1BA9 JUMP JUMPDEST PUSH1 0x1 PUSH1 0x1 PUSH1 0xD0 SHL SUB AND SWAP2 POP PUSH1 0x1 PUSH1 0x1 PUSH1 0xD0 SHL SUB AND SWAP2 POP DUP4 PUSH1 0x1 PUSH1 0x1 PUSH1 0xA0 SHL SUB AND PUSH32 0xDEC2BACDD2F05B59DE34DA9B523DFF8BE42E5E38E818C82FDB0BAE774387A724 DUP4 DUP4 PUSH1 0x40 MLOAD PUSH2 0x1819 SWAP3 SWAP2 SWAP1 SWAP2 DUP3 MSTORE PUSH1 0x20 DUP3 ADD MSTORE PUSH1 0x40 ADD SWAP1 JUMP JUMPDEST PUSH1 0x40 MLOAD DUP1 SWAP2 SUB SWAP1 LOG2 POP POP POP POP POP JUMP JUMPDEST PUSH1 0x0 PUSH4 0xFFFFFFFF DUP3 GT ISZERO PUSH2 0xEAE JUMPI PUSH1 0x40 MLOAD PUSH4 0x6DFCC65 PUSH1 0xE4 SHL DUP2 MSTORE PUSH1 0x20 PUSH1 0x4 DUP3 ADD MSTORE PUSH1 0x24 DUP2 ADD DUP4 SWAP1 MSTORE PUSH1 0x44 ADD PUSH2 0x66F JUMP JUMPDEST PUSH1 0x5 SLOAD PUSH1 0x1 PUSH1 0xA0 SHL SWAP1 DIV PUSH1 0xFF AND ISZERO PUSH2 0x6D5 JUMPI PUSH1 0x40 MLOAD PUSH4 0xD93C0665 PUSH1 0xE0 SHL DUP2 MSTORE PUSH1 0x4 ADD PUSH1 0x40 MLOAD DUP1 SWAP2 SUB SWAP1 REVERT JUMPDEST PUSH1 0x60 PUSH1 0xFF DUP4 EQ PUSH2 0x189E JUMPI PUSH2 0x1897 DUP4 PUSH2 0x1C16 JUMP JUMPDEST SWAP1 POP PUSH2 0x5F4 JUMP JUMPDEST DUP2 DUP1 SLOAD PUSH2 0x18AA SWAP1 PUSH2 0x2281 JUMP JUMPDEST DUP1 PUSH1 0x1F ADD PUSH1 0x20 DUP1 SWAP2 DIV MUL PUSH1 0x20 ADD PUSH1 0x40 MLOAD SWAP1 DUP2 ADD PUSH1 0x40 MSTORE DUP1 SWAP3 SWAP2 SWAP1 DUP2 DUP2 MSTORE PUSH1 0x20 ADD DUP3 DUP1 SLOAD PUSH2 0x18D6 SWAP1 PUSH2 0x2281 JUMP JUMPDEST DUP1 ISZERO PUSH2 0x1923 JUMPI DUP1 PUSH1 0x1F LT PUSH2 0x18F8 JUMPI PUSH2 0x100 DUP1 DUP4 SLOAD DIV MUL DUP4 MSTORE SWAP2 PUSH1 0x20 ADD SWAP2 PUSH2 0x1923 JUMP JUMPDEST DUP3 ADD SWAP2 SWAP1 PUSH1 0x0 MSTORE PUSH1 0x20 PUSH1 0x0 KECCAK256 SWAP1 JUMPDEST DUP2 SLOAD DUP2 MSTORE SWAP1 PUSH1 0x1 ADD SWAP1 PUSH1 0x20 ADD DUP1 DUP4 GT PUSH2 0x1906 JUMPI DUP3 SWAP1 SUB PUSH1 0x1F AND DUP3 ADD SWAP2 JUMPDEST POP POP POP POP POP SWAP1 POP PUSH2 0x5F4 JUMP JUMPDEST PUSH1 0x0 DUP1 DUP1 PUSH32 0x7FFFFFFFFFFFFFFFFFFFFFFFFFFFFFFF5D576E7357A4501DDFE92F46681B20A0 DUP5 GT ISZERO PUSH2 0x196A JUMPI POP PUSH1 0x0 SWAP2 POP PUSH1 0x3 SWAP1 POP DUP3 PUSH2 0x19F4 JUMP JUMPDEST PUSH1 0x40 DUP1 MLOAD PUSH1 0x0 DUP1 DUP3 MSTORE PUSH1 0x20 DUP3 ADD DUP1 DUP5 MSTORE DUP11 SWAP1 MSTORE PUSH1 0xFF DUP10 AND SWAP3 DUP3 ADD SWAP3 SWAP1 SWAP3 MSTORE PUSH1 0x60 DUP2 ADD DUP8 SWAP1 MSTORE PUSH1 0x80 DUP2 ADD DUP7 SWAP1 MSTORE PUSH1 0x1 SWAP1 PUSH1 0xA0 ADD PUSH1 0x20 PUSH1 0x40 MLOAD PUSH1 0x20 DUP2 SUB SWAP1 DUP1 DUP5 SUB SWAP1 DUP6 GAS STATICCALL ISZERO DUP1 ISZERO PUSH2 0x19BE JUMPI RETURNDATASIZE PUSH1 0x0 DUP1 RETURNDATACOPY RETURNDATASIZE PUSH1 0x0 REVERT JUMPDEST POP POP PUSH1 0x40 MLOAD PUSH1 0x1F NOT ADD MLOAD SWAP2 POP POP PUSH1 0x1 PUSH1 0x1 PUSH1 0xA0 SHL SUB DUP2 AND PUSH2 0x19EA JUMPI POP PUSH1 0x0 SWAP3 POP PUSH1 0x1 SWAP2 POP DUP3 SWAP1 POP PUSH2 0x19F4 JUMP JUMPDEST SWAP3 POP PUSH1 0x0 SWAP2 POP DUP2 SWAP1 POP JUMPDEST SWAP5 POP SWAP5 POP SWAP5 SWAP2 POP POP JUMP JUMPDEST PUSH1 0x0 DUP3 PUSH1 0x3 DUP2 GT ISZERO PUSH2 0x1A12 JUMPI PUSH2 0x1A12 PUSH2 0x2384 JUMP JUMPDEST SUB PUSH2 0x1A1B JUMPI POP POP JUMP JUMPDEST PUSH1 0x1 DUP3 PUSH1 0x3 DUP2 GT ISZERO PUSH2 0x1A2F JUMPI PUSH2 0x1A2F PUSH2 0x2384 JUMP JUMPDEST SUB PUSH2 0x1A4D JUMPI PUSH1 0x40 MLOAD PUSH4 0xF645EEDF PUSH1 0xE0 SHL DUP2 MSTORE PUSH1 0x4 ADD PUSH1 0x40 MLOAD DUP1 SWAP2 SUB SWAP1 REVERT JUMPDEST PUSH1 0x2 DUP3 PUSH1 0x3 DUP2 GT ISZERO PUSH2 0x1A61 JUMPI PUSH2 0x1A61 PUSH2 0x2384 JUMP JUMPDEST SUB PUSH2 0x1A82 JUMPI PUSH1 0x40 MLOAD PUSH4 0xFCE698F7 PUSH1 0xE0 SHL DUP2 MSTORE PUSH1 0x4 DUP2 ADD DUP3 SWAP1 MSTORE PUSH1 0x24 ADD PUSH2 0x66F JUMP JUMPDEST PUSH1 0x3 DUP3 PUSH1 0x3 DUP2 GT ISZERO PUSH2 0x1A96 JUMPI PUSH2 0x1A96 PUSH2 0x2384 JUMP JUMPDEST SUB PUSH2 0x78A JUMPI PUSH1 0x40 MLOAD PUSH4 0x35E2F383 PUSH1 0xE2 SHL DUP2 MSTORE PUSH1 0x4 DUP2 ADD DUP3 SWAP1 MSTORE PUSH1 0x24 ADD PUSH2 0x66F JUMP JUMPDEST PUSH1 0x40 DUP1 MLOAD DUP1 DUP3 ADD SWAP1 SWAP2 MSTORE PUSH1 0x0 DUP1 DUP3 MSTORE PUSH1 0x20 DUP3 ADD MSTORE DUP3 PUSH1 0x0 ADD DUP3 PUSH4 0xFFFFFFFF AND DUP2 SLOAD DUP2 LT PUSH2 0x1AE6 JUMPI PUSH2 0x1AE6 PUSH2 0x239A JUMP JUMPDEST PUSH1 0x0 SWAP2 DUP3 MSTORE PUSH1 0x20 SWAP2 DUP3 SWAP1 KECCAK256 PUSH1 0x40 DUP1 MLOAD DUP1 DUP3 ADD SWAP1 SWAP2 MSTORE SWAP2 ADD SLOAD PUSH6 0xFFFFFFFFFFFF DUP2 AND DUP3 MSTORE PUSH1 0x1 PUSH1 0x30 SHL SWAP1 DIV PUSH1 0x1 PUSH1 0x1 PUSH1 0xD0 SHL SUB AND SWAP2 DUP2 ADD SWAP2 SWAP1 SWAP2 MSTORE SWAP4 SWAP3 POP POP POP JUMP JUMPDEST PUSH2 0x1B32 DUP4 DUP4 DUP4 PUSH2 0x1C55 JUMP JUMPDEST PUSH1 0x1 PUSH1 0x1 PUSH1 0xA0 SHL SUB DUP4 AND PUSH2 0x1B83 JUMPI PUSH1 0x0 PUSH2 0x1B4B PUSH1 0x2 SLOAD SWAP1 JUMP JUMPDEST SWAP1 POP PUSH1 0x1 PUSH1 0x1 PUSH1 0xD0 SHL SUB DUP1 DUP3 GT ISZERO PUSH2 0x1B80 JUMPI PUSH1 0x40 MLOAD PUSH4 0xE58AE93 PUSH1 0xE1 SHL DUP2 MSTORE PUSH1 0x4 DUP2 ADD DUP4 SWAP1 MSTORE PUSH1 0x24 DUP2 ADD DUP3 SWAP1 MSTORE PUSH1 0x44 ADD PUSH2 0x66F JUMP JUMPDEST POP POP JUMPDEST PUSH2 0xC6E DUP4 DUP4 DUP4 PUSH2 0x1C68 JUMP JUMPDEST PUSH1 0x0 PUSH2 0x1B9D PUSH1 0x2 DUP5 DUP5 XOR PUSH2 0x2362 JUMP JUMPDEST PUSH2 0xC07 SWAP1 DUP5 DUP5 AND PUSH2 0x22D1 JUMP JUMPDEST PUSH1 0x0 PUSH1 0x1 PUSH1 0x1 PUSH1 0xD0 SHL SUB DUP3 GT ISZERO PUSH2 0xEAE JUMPI PUSH1 0x40 MLOAD PUSH4 0x6DFCC65 PUSH1 0xE4 SHL DUP2 MSTORE PUSH1 0xD0 PUSH1 0x4 DUP3 ADD MSTORE PUSH1 0x24 DUP2 ADD DUP4 SWAP1 MSTORE PUSH1 0x44 ADD PUSH2 0x66F JUMP JUMPDEST PUSH1 0x0 DUP1 PUSH2 0x1C09 PUSH2 0x1BEB PUSH2 0x99B JUMP JUMPDEST PUSH2 0x1C01 PUSH2 0x1BF7 DUP9 PUSH2 0x122C JUMP JUMPDEST DUP7 DUP9 PUSH4 0xFFFFFFFF AND JUMP JUMPDEST DUP8 SWAP2 SWAP1 PUSH2 0x1CDE JUMP JUMPDEST SWAP2 POP SWAP2 POP JUMPDEST SWAP4 POP SWAP4 SWAP2 POP POP JUMP JUMPDEST PUSH1 0x60 PUSH1 0x0 PUSH2 0x1C23 DUP4 PUSH2 0x1CEC JUMP JUMPDEST PUSH1 0x40 DUP1 MLOAD PUSH1 0x20 DUP1 DUP3 MSTORE DUP2 DUP4 ADD SWAP1 SWAP3 MSTORE SWAP2 SWAP3 POP PUSH1 0x0 SWAP2 SWAP1 PUSH1 0x20 DUP3 ADD DUP2 DUP1 CALLDATASIZE DUP4 CALLDATACOPY POP POP POP SWAP2 DUP3 MSTORE POP PUSH1 0x20 DUP2 ADD SWAP3 SWAP1 SWAP3 MSTORE POP SWAP1 JUMP JUMPDEST PUSH2 0x1C5D PUSH2 0x1859 JUMP JUMPDEST PUSH2 0xC6E DUP4 DUP4 DUP4 PUSH2 0x1D14 JUMP JUMPDEST PUSH1 0x1 PUSH1 0x1 PUSH1 0xA0 SHL SUB DUP4 AND PUSH2 0x1C8A JUMPI PUSH2 0x1C87 PUSH1 0xB PUSH2 0xC49 PUSH2 0x171C DUP5 PUSH2 0x1BA9 JUMP JUMPDEST POP POP JUMPDEST PUSH1 0x1 PUSH1 0x1 PUSH1 0xA0 SHL SUB DUP3 AND PUSH2 0x1CAC JUMPI PUSH2 0x1CA9 PUSH1 0xB PUSH2 0xC55 PUSH2 0x171C DUP5 PUSH2 0x1BA9 JUMP JUMPDEST POP POP JUMPDEST PUSH1 0x1 PUSH1 0x1 PUSH1 0xA0 SHL SUB DUP4 DUP2 AND PUSH1 0x0 SWAP1 DUP2 MSTORE PUSH1 0x9 PUSH1 0x20 MSTORE PUSH1 0x40 DUP1 DUP3 KECCAK256 SLOAD DUP6 DUP5 AND DUP4 MSTORE SWAP2 KECCAK256 SLOAD PUSH2 0xC6E SWAP3 SWAP2 DUP3 AND SWAP2 AND DUP4 PUSH2 0x16BC JUMP JUMPDEST PUSH1 0x0 DUP1 PUSH2 0x1C09 DUP6 DUP6 DUP6 PUSH2 0x1E3E JUMP JUMPDEST PUSH1 0x0 PUSH1 0xFF DUP3 AND PUSH1 0x1F DUP2 GT ISZERO PUSH2 0x5F4 JUMPI PUSH1 0x40 MLOAD PUSH4 0x2CD44AC3 PUSH1 0xE2 SHL DUP2 MSTORE PUSH1 0x4 ADD PUSH1 0x40 MLOAD DUP1 SWAP2 SUB SWAP1 REVERT JUMPDEST PUSH1 0x1 PUSH1 0x1 PUSH1 0xA0 SHL SUB DUP4 AND PUSH2 0x1D3F JUMPI DUP1 PUSH1 0x2 PUSH1 0x0 DUP3 DUP3 SLOAD PUSH2 0x1D34 SWAP2 SWAP1 PUSH2 0x22D1 JUMP JUMPDEST SWAP1 SWAP2 SSTORE POP PUSH2 0x1DB1 SWAP1 POP JUMP JUMPDEST PUSH1 0x1 PUSH1 0x1 PUSH1 0xA0 SHL SUB DUP4 AND PUSH1 0x0 SWAP1 DUP2 MSTORE PUSH1 0x20 DUP2 SWAP1 MSTORE PUSH1 0x40 SWAP1 KECCAK256 SLOAD DUP2 DUP2 LT ISZERO PUSH2 0x1D92 JUMPI PUSH1 0x40 MLOAD PUSH4 0x391434E3 PUSH1 0xE2 SHL DUP2 MSTORE PUSH1 0x1 PUSH1 0x1 PUSH1 0xA0 SHL SUB DUP6 AND PUSH1 0x4 DUP3 ADD MSTORE PUSH1 0x24 DUP2 ADD DUP3 SWAP1 MSTORE PUSH1 0x44 DUP2 ADD DUP4 SWAP1 MSTORE PUSH1 0x64 ADD PUSH2 0x66F JUMP JUMPDEST PUSH1 0x1 PUSH1 0x1 PUSH1 0xA0 SHL SUB DUP5 AND PUSH1 0x0 SWAP1 DUP2 MSTORE PUSH1 0x20 DUP2 SWAP1 MSTORE PUSH1 0x40 SWAP1 KECCAK256 SWAP1 DUP3 SWAP1 SUB SWAP1 SSTORE JUMPDEST PUSH1 0x1 PUSH1 0x1 PUSH1 0xA0 SHL SUB DUP3 AND PUSH2 0x1DCD JUMPI PUSH1 0x2 DUP1 SLOAD DUP3 SWAP1 SUB SWAP1 SSTORE PUSH2 0x1DEC JUMP JUMPDEST PUSH1 0x1 PUSH1 0x1 PUSH1 0xA0 SHL SUB DUP3 AND PUSH1 0x0 SWAP1 DUP2 MSTORE PUSH1 0x20 DUP2 SWAP1 MSTORE PUSH1 0x40 SWAP1 KECCAK256 DUP1 SLOAD DUP3 ADD SWAP1 SSTORE JUMPDEST DUP2 PUSH1 0x1 PUSH1 0x1 PUSH1 0xA0 SHL SUB AND DUP4 PUSH1 0x1 PUSH1 0x1 PUSH1 0xA0 SHL SUB AND PUSH32 0xDDF252AD1BE2C89B69C2B068FC378DAA952BA7F163C4A11628F55A4DF523B3EF DUP4 PUSH1 0x40 MLOAD PUSH2 0x1E31 SWAP2 DUP2 MSTORE PUSH1 0x20 ADD SWAP1 JUMP JUMPDEST PUSH1 0x40 MLOAD DUP1 SWAP2 SUB SWAP1 LOG3 POP POP POP JUMP JUMPDEST DUP3 SLOAD PUSH1 0x0 SWAP1 DUP2 SWAP1 DUP1 ISZERO PUSH2 0x1F37 JUMPI PUSH1 0x0 PUSH2 0x1E5C DUP8 PUSH2 0xF36 PUSH1 0x1 DUP6 PUSH2 0x2322 JUMP JUMPDEST DUP1 SLOAD SWAP1 SWAP2 POP PUSH6 0xFFFFFFFFFFFF DUP1 DUP3 AND SWAP2 PUSH1 0x1 PUSH1 0x30 SHL SWAP1 DIV PUSH1 0x1 PUSH1 0x1 PUSH1 0xD0 SHL SUB AND SWAP1 DUP9 AND DUP3 GT ISZERO PUSH2 0x1E9F JUMPI PUSH1 0x40 MLOAD PUSH4 0x2520601D PUSH1 0xE0 SHL DUP2 MSTORE PUSH1 0x4 ADD PUSH1 0x40 MLOAD DUP1 SWAP2 SUB SWAP1 REVERT JUMPDEST DUP8 PUSH6 0xFFFFFFFFFFFF AND DUP3 PUSH6 0xFFFFFFFFFFFF AND SUB PUSH2 0x1ED8 JUMPI DUP3 SLOAD PUSH6 0xFFFFFFFFFFFF AND PUSH1 0x1 PUSH1 0x30 SHL PUSH1 0x1 PUSH1 0x1 PUSH1 0xD0 SHL SUB DUP10 AND MUL OR DUP4 SSTORE PUSH2 0x1F29 JUMP JUMPDEST PUSH1 0x40 DUP1 MLOAD DUP1 DUP3 ADD SWAP1 SWAP2 MSTORE PUSH6 0xFFFFFFFFFFFF DUP1 DUP11 AND DUP3 MSTORE PUSH1 0x1 PUSH1 0x1 PUSH1 0xD0 SHL SUB DUP1 DUP11 AND PUSH1 0x20 DUP1 DUP6 ADD SWAP2 DUP3 MSTORE DUP14 SLOAD PUSH1 0x1 DUP2 ADD DUP16 SSTORE PUSH1 0x0 DUP16 DUP2 MSTORE SWAP2 SWAP1 SWAP2 KECCAK256 SWAP5 MLOAD SWAP2 MLOAD SWAP1 SWAP3 AND PUSH1 0x1 PUSH1 0x30 SHL MUL SWAP3 AND SWAP2 SWAP1 SWAP2 OR SWAP2 ADD SSTORE JUMPDEST SWAP5 POP DUP6 SWAP4 POP PUSH2 0x1C0E SWAP3 POP POP POP JUMP JUMPDEST POP POP PUSH1 0x40 DUP1 MLOAD DUP1 DUP3 ADD SWAP1 SWAP2 MSTORE PUSH6 0xFFFFFFFFFFFF DUP1 DUP6 AND DUP3 MSTORE PUSH1 0x1 PUSH1 0x1 PUSH1 0xD0 SHL SUB DUP1 DUP6 AND PUSH1 0x20 DUP1 DUP6 ADD SWAP2 DUP3 MSTORE DUP9 SLOAD PUSH1 0x1 DUP2 ADD DUP11 SSTORE PUSH1 0x0 DUP11 DUP2 MSTORE SWAP2 DUP3 KECCAK256 SWAP6 MLOAD SWAP3 MLOAD SWAP1 SWAP4 AND PUSH1 0x1 PUSH1 0x30 SHL MUL SWAP2 SWAP1 SWAP4 AND OR SWAP3 ADD SWAP2 SWAP1 SWAP2 SSTORE SWAP1 POP DUP2 PUSH2 0x1C0E JUMP JUMPDEST PUSH1 0x0 DUP2 MLOAD DUP1 DUP5 MSTORE PUSH1 0x0 JUMPDEST DUP2 DUP2 LT ISZERO PUSH2 0x1FB8 JUMPI PUSH1 0x20 DUP2 DUP6 ADD DUP2 ADD MLOAD DUP7 DUP4 ADD DUP3 ADD MSTORE ADD PUSH2 0x1F9C JUMP JUMPDEST POP PUSH1 0x0 PUSH1 0x20 DUP3 DUP7 ADD ADD MSTORE PUSH1 0x20 PUSH1 0x1F NOT PUSH1 0x1F DUP4 ADD AND DUP6 ADD ADD SWAP2 POP POP SWAP3 SWAP2 POP POP JUMP JUMPDEST PUSH1 0x20 DUP2 MSTORE PUSH1 0x0 PUSH2 0xC07 PUSH1 0x20 DUP4 ADD DUP5 PUSH2 0x1F92 JUMP JUMPDEST DUP1 CALLDATALOAD PUSH1 0x1 PUSH1 0x1 PUSH1 0xA0 SHL SUB DUP2 AND DUP2 EQ PUSH2 0x2002 JUMPI PUSH1 0x0 DUP1 REVERT JUMPDEST SWAP2 SWAP1 POP JUMP JUMPDEST PUSH1 0x0 DUP1 PUSH1 0x40 DUP4 DUP6 SUB SLT ISZERO PUSH2 0x201A JUMPI PUSH1 0x0 DUP1 REVERT JUMPDEST PUSH2 0x2023 DUP4 PUSH2 0x1FEB JUMP JUMPDEST SWAP5 PUSH1 0x20 SWAP4 SWAP1 SWAP4 ADD CALLDATALOAD SWAP4 POP POP POP JUMP JUMPDEST PUSH1 0x0 DUP1 PUSH1 0x0 PUSH1 0x60 DUP5 DUP7 SUB SLT ISZERO PUSH2 0x2046 JUMPI PUSH1 0x0 DUP1 REVERT JUMPDEST PUSH2 0x204F DUP5 PUSH2 0x1FEB JUMP JUMPDEST SWAP3 POP PUSH2 0x205D PUSH1 0x20 DUP6 ADD PUSH2 0x1FEB JUMP JUMPDEST SWAP3 SWAP6 SWAP3 SWAP5 POP POP POP PUSH1 0x40 SWAP2 SWAP1 SWAP2 ADD CALLDATALOAD SWAP1 JUMP JUMPDEST PUSH1 0x0 PUSH1 0x20 DUP3 DUP5 SUB SLT ISZERO PUSH2 0x2080 JUMPI PUSH1 0x0 DUP1 REVERT JUMPDEST POP CALLDATALOAD SWAP2 SWAP1 POP JUMP JUMPDEST PUSH1 0x0 PUSH1 0x20 DUP3 DUP5 SUB SLT ISZERO PUSH2 0x2099 JUMPI PUSH1 0x0 DUP1 REVERT JUMPDEST PUSH2 0xC07 DUP3 PUSH2 0x1FEB JUMP JUMPDEST PUSH1 0xFF PUSH1 0xF8 SHL DUP9 AND DUP2 MSTORE PUSH1 0xE0 PUSH1 0x20 DUP3 ADD MSTORE PUSH1 0x0 PUSH2 0x20C1 PUSH1 0xE0 DUP4 ADD DUP10 PUSH2 0x1F92 JUMP JUMPDEST DUP3 DUP2 SUB PUSH1 0x40 DUP5 ADD MSTORE PUSH2 0x20D3 DUP2 DUP10 PUSH2 0x1F92 JUMP JUMPDEST PUSH1 0x60 DUP5 ADD DUP9 SWAP1 MSTORE PUSH1 0x1 PUSH1 0x1 PUSH1 0xA0 SHL SUB DUP8 AND PUSH1 0x80 DUP6 ADD MSTORE PUSH1 0xA0 DUP5 ADD DUP7 SWAP1 MSTORE DUP4 DUP2 SUB PUSH1 0xC0 DUP6 ADD MSTORE DUP5 MLOAD DUP1 DUP3 MSTORE PUSH1 0x20 DUP1 DUP8 ADD SWAP4 POP SWAP1 SWAP2 ADD SWAP1 PUSH1 0x0 JUMPDEST DUP2 DUP2 LT ISZERO PUSH2 0x2129 JUMPI DUP4 MLOAD DUP4 MSTORE PUSH1 0x20 SWAP4 DUP5 ADD SWAP4 SWAP1 SWAP3 ADD SWAP2 PUSH1 0x1 ADD PUSH2 0x210B JUMP JUMPDEST POP SWAP1 SWAP12 SWAP11 POP POP POP POP POP POP POP POP POP POP POP JUMP JUMPDEST DUP1 CALLDATALOAD PUSH1 0xFF DUP2 AND DUP2 EQ PUSH2 0x2002 JUMPI PUSH1 0x0 DUP1 REVERT JUMPDEST PUSH1 0x0 DUP1 PUSH1 0x0 DUP1 PUSH1 0x0 DUP1 PUSH1 0xC0 DUP8 DUP10 SUB SLT ISZERO PUSH2 0x2164 JUMPI PUSH1 0x0 DUP1 REVERT JUMPDEST PUSH2 0x216D DUP8 PUSH2 0x1FEB JUMP JUMPDEST SWAP6 POP PUSH1 0x20 DUP8 ADD CALLDATALOAD SWAP5 POP PUSH1 0x40 DUP8 ADD CALLDATALOAD SWAP4 POP PUSH2 0x2189 PUSH1 0x60 DUP9 ADD PUSH2 0x213A JUMP JUMPDEST SWAP6 SWAP9 SWAP5 SWAP8 POP SWAP3 SWAP6 PUSH1 0x80 DUP2 ADD CALLDATALOAD SWAP5 PUSH1 0xA0 SWAP1 SWAP2 ADD CALLDATALOAD SWAP4 POP SWAP2 POP POP JUMP JUMPDEST PUSH1 0x0 DUP1 PUSH1 0x0 DUP1 PUSH1 0x0 DUP1 PUSH1 0x0 PUSH1 0xE0 DUP9 DUP11 SUB SLT ISZERO PUSH2 0x21BE JUMPI PUSH1 0x0 DUP1 REVERT JUMPDEST PUSH2 0x21C7 DUP9 PUSH2 0x1FEB JUMP JUMPDEST SWAP7 POP PUSH2 0x21D5 PUSH1 0x20 DUP10 ADD PUSH2 0x1FEB JUMP JUMPDEST SWAP6 POP PUSH1 0x40 DUP9 ADD CALLDATALOAD SWAP5 POP PUSH1 0x60 DUP9 ADD CALLDATALOAD SWAP4 POP PUSH2 0x21F1 PUSH1 0x80 DUP10 ADD PUSH2 0x213A JUMP JUMPDEST SWAP7 SWAP10 SWAP6 SWAP9 POP SWAP4 SWAP7 SWAP3 SWAP6 SWAP5 PUSH1 0xA0 DUP5 ADD CALLDATALOAD SWAP5 POP PUSH1 0xC0 SWAP1 SWAP4 ADD CALLDATALOAD SWAP3 SWAP2 POP POP JUMP JUMPDEST PUSH1 0x0 DUP1 PUSH1 0x40 DUP4 DUP6 SUB SLT ISZERO PUSH2 0x2221 JUMPI PUSH1 0x0 DUP1 REVERT JUMPDEST PUSH2 0x222A DUP4 PUSH2 0x1FEB JUMP JUMPDEST SWAP2 POP PUSH2 0x2238 PUSH1 0x20 DUP5 ADD PUSH2 0x1FEB JUMP JUMPDEST SWAP1 POP SWAP3 POP SWAP3 SWAP1 POP JUMP JUMPDEST PUSH1 0x0 DUP1 PUSH1 0x40 DUP4 DUP6 SUB SLT ISZERO PUSH2 0x2254 JUMPI PUSH1 0x0 DUP1 REVERT JUMPDEST PUSH2 0x225D DUP4 PUSH2 0x1FEB JUMP JUMPDEST SWAP2 POP PUSH1 0x20 DUP4 ADD CALLDATALOAD PUSH4 0xFFFFFFFF DUP2 AND DUP2 EQ PUSH2 0x2276 JUMPI PUSH1 0x0 DUP1 REVERT JUMPDEST DUP1 SWAP2 POP POP SWAP3 POP SWAP3 SWAP1 POP JUMP JUMPDEST PUSH1 0x1 DUP2 DUP2 SHR SWAP1 DUP3 AND DUP1 PUSH2 0x2295 JUMPI PUSH1 0x7F DUP3 AND SWAP2 POP JUMPDEST PUSH1 0x20 DUP3 LT DUP2 SUB PUSH2 0x22B5 JUMPI PUSH4 0x4E487B71 PUSH1 0xE0 SHL PUSH1 0x0 MSTORE PUSH1 0x22 PUSH1 0x4 MSTORE PUSH1 0x24 PUSH1 0x0 REVERT JUMPDEST POP SWAP2 SWAP1 POP JUMP JUMPDEST PUSH4 0x4E487B71 PUSH1 0xE0 SHL PUSH1 0x0 MSTORE PUSH1 0x11 PUSH1 0x4 MSTORE PUSH1 0x24 PUSH1 0x0 REVERT JUMPDEST DUP1 DUP3 ADD DUP1 DUP3 GT ISZERO PUSH2 0x5F4 JUMPI PUSH2 0x5F4 PUSH2 0x22BB JUMP JUMPDEST PUSH1 0x1 PUSH1 0x1 PUSH1 0xD0 SHL SUB DUP2 DUP2 AND DUP4 DUP3 AND ADD SWAP1 DUP2 GT ISZERO PUSH2 0x5F4 JUMPI PUSH2 0x5F4 PUSH2 0x22BB JUMP JUMPDEST PUSH1 0x1 PUSH1 0x1 PUSH1 0xD0 SHL SUB DUP3 DUP2 AND DUP3 DUP3 AND SUB SWAP1 DUP2 GT ISZERO PUSH2 0x5F4 JUMPI PUSH2 0x5F4 PUSH2 0x22BB JUMP JUMPDEST DUP2 DUP2 SUB DUP2 DUP2 GT ISZERO PUSH2 0x5F4 JUMPI PUSH2 0x5F4 PUSH2 0x22BB JUMP JUMPDEST DUP1 DUP3 MUL DUP2 ISZERO DUP3 DUP3 DIV DUP5 EQ OR PUSH2 0x5F4 JUMPI PUSH2 0x5F4 PUSH2 0x22BB JUMP JUMPDEST PUSH4 0x4E487B71 PUSH1 0xE0 SHL PUSH1 0x0 MSTORE PUSH1 0x12 PUSH1 0x4 MSTORE PUSH1 0x24 PUSH1 0x0 REVERT JUMPDEST PUSH1 0x0 DUP3 PUSH2 0x237F JUMPI PUSH4 0x4E487B71 PUSH1 0xE0 SHL PUSH1 0x0 MSTORE PUSH1 0x12 PUSH1 0x4 MSTORE PUSH1 0x24 PUSH1 0x0 REVERT JUMPDEST POP DIV SWAP1 JUMP JUMPDEST PUSH4 0x4E487B71 PUSH1 0xE0 SHL PUSH1 0x0 MSTORE PUSH1 0x21 PUSH1 0x4 MSTORE PUSH1 0x24 PUSH1 0x0 REVERT JUMPDEST PUSH4 0x4E487B71 PUSH1 0xE0 SHL PUSH1 0x0 MSTORE PUSH1 0x32 PUSH1 0x4 MSTORE PUSH1 0x24 PUSH1 0x0 REVERT INVALID LOG2 PUSH5 0x6970667358 0x22 SLT KECCAK256 0xB0 0xD2 MSTORE8 0x4B 0xCD CREATE2 0xE3 0xC 0xD3 MCOPY PUSH4 0x9490B769 COINBASE SLT DUP1 CODECOPY CALLER 0xF9 0xF9 0x1F EXP PUSH7 0x15D535BCEDBF8 PUSH5 0x736F6C6343 STOP ADDMOD SHR STOP CALLER ","sha1":"99c6c32bfeb1472015c86d1f1ab11657c67f9c94","source":"// SPDX-License-Identifier: MIT\n// OpenZeppelin Contracts (last updated v5.1.0) (token/ERC20/ERC20.sol)\n\npragma solidity ^0.8.28;\n\nimport \"../../node_modules/@openzeppelin/contracts/access/Ownable.sol\";\nimport \"../../node_modules/@openzeppelin/contracts/token/ERC20/ERC20.sol\";\nimport \"../../node_modules/@openzeppelin/contracts/token/ERC20/extensions/ERC20Burnable.sol\";\nimport \"../../node_modules/@openzeppelin/contracts/token/ERC20/extensions/ERC20Pausable.sol\";\nimport \"../../node_modules/@openzeppelin/contracts/token/ERC20/extensions/ERC20Permit.sol\";\nimport \"../../node_modules/@openzeppelin/contracts/token/ERC20/extensions/ERC20Votes.sol\";\nimport \"../../node_modules/@openzeppelin/contracts/utils/ReentrancyGuard.sol\";\n\ncontract DodoCoin is ERC20, ERC20Burnable, Ownable , ERC20Pausable, ERC20Permit, ERC20Votes, ReentrancyGuard {\n\n    uint256 public immutable MAX_SUPPLY = 1_000_000 * 10**decimals();\n    uint256 public transferFee = 5; // Default fee: 5%\n    bool private initialized;\n\n    constructor() ERC20(\"DodoCoin3\", \"DoDo3\" ) ERC20Permit(\"DodoCoin3\") Ownable(msg.sender) {\n        require(!initialized, \"Contract is already initialized\");\n        initialized = true;\n        _mint(msg.sender, 100000 * 10**decimals());\n    }\n\n    function mint(address to, uint256 amount) public onlyOwner nonReentrant {\n        require(totalSupply() + amount <= MAX_SUPPLY, \"ERC20: Cannot mint beyond max supply\");\n        _mint(to, amount);\n    }\n\n    function burn(uint256 amount) public virtual override nonReentrant {\n        _burn(_msgSender(), amount);\n    }\n\n    function pause() public onlyOwner nonReentrant {\n        _pause();\n    }\n\n    function unpause() public onlyOwner nonReentrant {\n        _unpause();\n    }\n\n    function setTransferFee(uint256 fee) public onlyOwner nonReentrant {\n        require(fee <= 10, \"ERC20: Fee too high\"); // Max fee is 10%\n        transferFee = fee;\n    }\n\n    function _update(address from, address to, uint256 value) internal override(ERC20, ERC20Pausable, ERC20Votes){\n        uint256 fee = (value * transferFee) / 100; // Calculate 2% fee\n        uint256 amountAfterFee = value - fee;\n\n        // Ensure the fee only applies to non-zero transfers\n        if (from != address(0) && to != address(0) && fee > 0) {\n            super._update(from, owner(), fee);      // Transfer the fee to the owner\n            super._update(from, to, amountAfterFee); // Transfer the remaining amount to the recipient\n        } else {\n            super._update(from, to, value); // Default behavior for minting, burning, etc.\n        }\n    }\n\n    \n    function nonces(address owner) public view override(ERC20Permit, Nonces) returns (uint256)\n    {\n        return super.nonces(owner);\n    }\n}","sourcePath":"contracts/DodoCoin.sol","type":"contract","deployment":{"address":"0xF2332E75B622C66fcaFC9240fC3A9877016d1d06","chainid":"11155111","blockHeight":19164807}}